S0270000537570657243617042696B652D4669726D776172652D41544D4547413332382E737265637C
S11300000C9434000C9451000C9451000C94510045
S11300100C9451000C9451000C9451000C94510018
S11300200C9451000C9451000C9451000C94530006
S11300300C9451000C9451000C9451000C945100F8
S11300400C9451000C9451000C9451000C945100E8
S11300500C9451000C9451000C9451000C945100D8
S11300600C9451000C94510011241FBECFEFD8E022
S1130070DEBFCDBF11E0A0E0B1E0E8E2F8E002C0ED
S113008005900D92AA30B107D9F721E0AAE0B1E0BA
S113009001C01D92AA31B207E1F70E9431030C940A
S11300A012040C9400001F920F9200905F000F92B4
S11300B01124AF92BF92CF92DF92EF92FF920F93EF
S11300C01F932F933F934F935F936F937F938F93DC
S11300D09F93AF93BF93EF93FF93CF93DF93CDB7EA
S11300E0DEB78091120190911301A0911401B09197
S11300F01501892B8A2B8B2B09F04EC0A0900A0185
S1130100B0900B01C0900C01D0900D01E0900E0155
S1130110F0900F0100911001109111012A2D3B2D37
S11301204C2D5D2D6E2D7F2D802F912FA1E00E94EF
S1130130F703A22EB32EC42ED52EE62EF72E082FAB
S1130140192FA0920A01B0920B01C0920C01D09217
S11301500D01E0920E01F0920F0100931001109333
S1130160110185E290E025E230E0F901308121E0DF
S11301702327FC0120838091160190911701A091FF
S11301801801B09119018093120190931301A09367
S11301901401B093150143C0809112019091130191
S11301A0A0911401B09115011197809312019093BD
S11301B01301A0931401B093150180911201909141
S11301C01301A0911401B09115010097A140B1054C
S11301D034F529E830E08091120190911301A09147
S11301E01401B0911501892F9A2FAB2FBB27A7FDBE
S11301F0BA95F901808328E830E08091120190914A
S11302001301A0911401B0911501F901808310929A
S113021012011092130110921401109215010000A2
S1130220DF91CF91FF91EF91BF91AF919F918F910A
S11302307F916F915F914F913F912F911F910F91FA
S1130240FF90EF90DF90CF90BF90AF900F9000920F
S11302505F000F901F9018952F923F924F925F92DC
S11302606F927F928F929F92AF92BF92CF92DF92C2
S1130270EF92FF920F931F93CF93DF93CDB7DEB727
S1130280AD970FB6F894DEBF0FBECDBF99A788A770
S11302904AA75BA76CA77DA710920A0110920B01D5
S11302A010920C0110920D0110920E0110920F0188
S11302B0109210011092110188A599A5CC01A0E01B
S11302C0B0E0E12C12E1F12E0AE710E09C01AD014F
S11302D0C801B7010E945603DC01CB019C01AD01AA
S11302E060E070E0CB012C833D834E835F8368879D
S11302F079878A879B878AA59BA5ACA5BDA59C0108
S1130300AD0160E070E0CB01A22EB32EC42ED52E39
S1130310E62EF72E082F192F2C813D814E815F8107
S1130320688579858A859B850E947303A22EB32EE6
S1130330C42ED52EE62EF72E082F192FAC86BD8697
S1130340CE86DF86E88AF98A0A8B1B8B8FE690E0DB
S11303502FE630E0F90120812260FC01208381E056
S113036090E09A8389832C843D844E845F846888DA
S113037079888A889B88AA24AA94BB24BA94C12C1D
S1130380D12CE12CF12C00E010E0222D332D442D52
S1130390552D662D772D882D992D0E947303A22E3D
S11303A0B32EC42ED52EE62EF72E082F192F2A2D64
S11303B03B2D4C2D5D2D6E2D7F2D802F912F2C8B61
S11303C03D8B4E8B5F8B8C899D89AE89BF89813033
S11303D09440A105B105F0F12C853D854E855F85DE
S11303E0688979898A899B890AE00E94D203A22EAE
S11303F0B32EC42ED52EE62EF72E082F192FD60194
S1130400C5018093160190931701A0931801B0932E
S113041019018091160190911701A0911801B091D2
S113042019018093120190931301A0931401B093C6
S1130430150181E890E02DE0FC01208389E890E03B
S11304402FEFFC01208388E890E02FEFFC0120834C
S113045081E0EEC08AE0E0E0F1E0DE015E9601902A
S11304600D928A95E1F71B822EC08B81882F90E034
S1130470880F991F9E012F5F3F4F820F931F4D9648
S1130480FC01808191819C0140E050E08C899D8930
S1130490AE89BF89281739074A075B0788F08B8123
S11304A0882F90E0880F991F9E012F5F3F4F820F86
S11304B0931F4D96FC01808191819A83898306C0A4
S11304C08B818F5F8B838B81853078F289819A81D0
S11304D080349105E9F08134910530F4813091053F
S11304E059F0089779F026C08115F1E09F07B1F023
S11304F081159440C9F01EC081E890E021E0FC0120
S1130500208318C081E890E022E0FC01208312C01F
S113051081E890E023E0FC0120830CC081E890E0B6
S113052024E0FC01208306C081E890E025E0FC0182
S11305302083000081E890E021E830E0F901208187
S11305402860FC01208389819A819C0140E050E06D
S11305508AA59BA5ACA5BDA5BC01CD010E945603EF
S1130560DC01CB01888F998FAA8FBB8F888D998DE1
S1130570AA8DBB8DB695A795979587955C016D015E
S1130580E12CF12C87012A2D3B2D4C2D5D2D6E2D58
S11305907F2D802F912FAC80BD80CE80DF80E884BA
S11305A0F9840A851B850E94EE03222E332E442EE5
S11305B0552E662E772E882E992E888D998DAA8D8C
S11305C0BB8D9C01AD0160E070E0CB01A22EB32E87
S11305D0C42ED52EE62EF72E082F192F222D332DBB
S11305E0442D552D662D772D882D992D0E9473034A
S11305F0A22EB32EC42ED52EE62EF72E082F192F99
S11306002A2D3B2D4C2D5D2D6E2D7F2D802F912F6E
S11306103D8F2C8F89E890E02C8D3D8D232F33273F
S1130620FC01208388E890E02C8DFC01208381E08C
S1130630AD960FB6F894DEBF0FBECDBFDF91CF915C
S11306401F910F91FF90EF90DF90CF90BF90AF90EC
S11306509F908F907F906F905F904F903F902F90DE
S11306600895CF93DF931F92CDB7DEB7789484E2D9
S113067090E024E230E0F90120812160FC01208334
S113068084E290E024E230E0F90120812260FC0160
S1130690208381E0882F90E0A0E0B0E0AC01BD01B0
S11306A08AE090E00E942C018983FFCFDB018F93C5
S11306B09F930E946603BF91AF91A29F800D911DED
S11306C0A39F900DB29F900D112408950E940304DE
S11306D0A59F900DB49F900DA49F800D911D112492
S11306E00895689401C0E8948F929F92CF93DF930A
S11306F00E947F03DF91CF919F908F90089588246B
S11307009924F401E401B0E49F93AA279A158B0479
S11307109C04ED05FE05CF05D007A10798F4AD2F85
S1130720DC2FCF2FFE2FE92D982C892E982F872F81
S1130730762F652F542F432F322F2227B85031F7AD
S1130740BF9127C01B2EBF91BB27220F331F441F0D
S1130750551F661F771F881F991F881C991CEE1F41
S1130760FF1FCC1FDD1FAA1FBB1F8A149B04EC05AF
S1130770FD05CE05DF05A007B10748F08A189B08E0
S1130780EC09FD09CE09DF09A00BB10B21601A9415
S1130790E1F62EF49401AF01BE01CD01000C0895E1
S11307A097FB10F8169400080F93083098F008503F
S11307B0232F342F452F562F672F782F892F902DD5
S11307C0F4CF0594979587957795679557954795B1
S11307D0379527950A95AAF70F9108952A0D3B1D81
S11307E04C1D5D1D6E1D7F1D801F911F08950024EB
S11307F0A7FD00942A0F301D401D501D601D701D63
S1130800801D901D0895A29FB001B39FC001A39FB6
S1130810700D811D1124911DB29F700D811D112435
S10B0820911D0895F894FFCF27
S10D08280100080040000001000474
S9030000FC
