:100000000C9434000C9451000C9451000C94510049
:100010000C9451000C9451000C9451000C9451001C
:100020000C9451000C9451000C9451000C9453000A
:100030000C9451000C9451000C9451000C945100FC
:100040000C9451000C9451000C9451000C945100EC
:100050000C9451000C9451000C9451000C945100DC
:100060000C9451000C94510011241FBECFEFD8E026
:10007000DEBFCDBF11E0A0E0B1E0EEE0F6E002C0EF
:1000800005900D92AA30B107D9F721E0AAE0B1E0BE
:1000900001C01D92AA31B207E1F70E943D020C9403
:1000A00005030C9400001F920F920FB60F921124BB
:1000B0002F933F934F935F936F937F938F939F9370
:1000C000AF93BF93289A80910A0190910B01A09160
:1000D0000C01B0910D01892B8A2B8B2B09F44FC099
:1000E00080910A0190910B01A0910C01B0910D013A
:1000F0000097A140B10504F180910A0190910B0194
:10010000A0910C01B0910D01119780930A01909379
:100110000B01A0930C01B0930D01BF91AF919F9182
:100120008F917F916F915F914F913F912F910F90A0
:100130000FBE0F901F90189580910A0190910B01AE
:10014000A0910C01B0910D01892F9A2FAB2FBB27E5
:10015000A7FDBA958093890080910A0190910B01C7
:10016000A0910C01B0910D018093880010920A01BA
:1001700010920B0110920C0110920D01CECF209124
:1001800012013091130140911401509115016091B9
:100190001601709117018091180190911901A1E049
:1001A0000E94EA022093120130931301409314013C
:1001B00050931501609316017093170180931801F5
:1001C00090931901289880910E0190910F01A091B0
:1001D0001001B091110180930A0190930B01A0933B
:1001E0000C01B0930D018FEF9FEF909389008093E6
:1001F000880093CF2F923F924F925F926F927F929F
:100200008F929F92AF92BF92CF92DF92EF92FF9226
:100210000F931F93CF93DF93CDB7DEB766970FB6DB
:10022000F894DEBF0FBECDBF2A013B011092120130
:1002300010921301109214011092150110921601E0
:10024000109217011092180110921901DC0120E0A0
:1002500034E244EF50E00E9459027B018C0120E01F
:1002600030E0A9016B87FC860D871E872F87388BAE
:10027000498B5A8B93018201000F111F221F331FDC
:1002800058016901E12CF12C00E010E02B853C8540
:100290004D855E8560E070E080E090E00E9466023F
:1002A00019014A016B8B7C8B8D8B9E8B80916F002B
:1002B000826080936F00AA24AA94BB24BA94C12CB4
:1002C000D12C9101A4016B897C898D899E890E9422
:1002D0006602022F132F9A01013044E01407210512
:1002E000310508F052C08AE0E0E0F1E0DE0111964D
:1002F00001900D928A95E1F7FE013196AE01455FBE
:100300005F4FA191B191BD0180E090E0601771074E
:100310008207930708F07EC04E175F0791F781E0D0
:100320008093810061E070E080E090E020918100A6
:10033000286020938100A30192010E9449022B01B1
:100340003C014B015C01B694A79497948794940167
:10035000A50160E070E080E090E0AB84BC84CD84D7
:10036000DE84E12CF12C00E010E00E94E102120199
:100370002301510162010E94660279018F2D9927A4
:1003800080938900E09288002BC09101A4016B89C1
:100390007C898D899E890AE00E94C502C901DA0123
:1003A00080930E0190930F01A0931001B09311015F
:1003B00080910E0190910F01A0911001B091110157
:1003C00080930A0190930B01A0930C01B0930D014F
:1003D0008DE0809381008FEF809389008093880067
:1003E00081E066960FB6F894DEBF0FBECDBFDF91F9
:1003F000CF911F910F91FF90EF90DF90CF90BF9022
:10040000AF909F908F907F906F905F904F903F90B4
:100410002F900895A034B105C9F000F1A11551E065
:10042000B50761F0A115B44009F080CF85E0809355
:10043000810060E074E080E090E078CF84E0809319
:10044000810060E071E080E090E070CF83E0809315
:10045000810060E470E080E090E068CFA130B105F9
:1004600009F45DCF189709F061CF82E08093810095
:1004700068E070E080E090E059CF7894209A219A6B
:1004800040E452E46FE070E081E090E00E94FA0006
:10049000FFCFDB018F939F930E945902BF91AF91D1
:1004A000A29F800D911DA39F900DB29F900D1124CE
:1004B00008950E94F602A59F900DB49F900DA49FF1
:1004C000800D911D11240895689401C0E8948F92C5
:1004D0009F92CF93DF930E947202DF91CF919F9002
:1004E0008F90089588249924F401E401B0E49F9347
:1004F000AA279A158B049C04ED05FE05CF05D007AD
:10050000A10798F4AD2FDC2FCF2FFE2FE92D982CCB
:10051000892E982F872F762F652F542F432F322F18
:100520002227B85031F7BF9127C01B2EBF91BB27A0
:10053000220F331F441F551F661F771F881F991FE7
:10054000881C991CEE1FFF1FCC1FDD1FAA1FBB1F9D
:100550008A149B04EC05FD05CE05DF05A007B10755
:1005600048F08A189B08EC09FD09CE09DF09A00BA9
:10057000B10B21601A94E1F62EF49401AF01BE0193
:10058000CD01000C089597FB10F8169400080F9306
:10059000083098F00850232F342F452F562F672FFF
:1005A000782F892F902DF4CF05949795879577957F
:1005B000679557954795379527950A95AAF70F910F
:1005C00008952A0D3B1D4C1D5D1D6E1D7F1D801F56
:1005D000911F08950024A7FD00942A0F301D401D8F
:1005E000501D601D701D801D901D0895A29FB001BB
:1005F000B39FC001A39F700D811D1124911DB29F57
:0E060000700D811D1124911D0895F894FFCFF7
:0A060E000100080040000001000494
:00000001FF
