:100000000C9434000C9451000C9451000C94510049
:100010000C9451000C9451000C9451000C94F70373
:100020000C9451000C9451000C9451000C94DC047D
:100030000C9451000C9451000C9452030C945100F8
:100040000C9451000C9451000C9451000C945100EC
:100050000C9451000C9451000C947C000C945100B1
:100060000C9451000C94510011241FBECFEFD8E026
:10007000DEBFCDBF11E0A0E0B1E0EEE4FBE102C0E5
:1000800005900D92AC31B107D9F721E0ACE1B1E0B8
:1000900001C01D92A135B207E1F70E9494000C94B3
:1000A000A50D0C9400002F913F918FEF9FEF0895C5
:1000B0002CEF29232030B9F708952FB321FDFDCF70
:1000C0000895F999F0CF27B720FDEDCFF1CFF9DFF3
:1000D00092BD81BDF894F89A60B57894862F90E02F
:1000E0000895EFDF92BD81BD60BDF894FA9AF99A48
:1000F0007894E3DF91E008951F920F9200905F00E3
:100100000F9211248F93CF93DF93CDB7DEB781E0A9
:1001100080931C010000DF91CF918F910F9000928E
:100120005F000F901F901895CF93DF93CDB7DEB788
:1001300068970FB6F894DEBF0FBECDBF789484E207
:1001400090E024E230E0F90120812160FC0120836D
:1001500084E290E024E230E0F90120812260FC0199
:1001600020838AE290E02AE230E0F90120812068D1
:10017000FC0120838AE290E02AE230E0F90120814C
:100180002064FC01208382E0898380911801909192
:100190001901CC01A0E0B0E02981AC01BD0184E6E9
:1001A00090E00E94C9058A8381E08B8380911401CD
:1001B00090911501A0911601B09117012B81AC010E
:1001C000BD0188EE93E00E94C9058C831D82809159
:1001D0001A01882F90E0A0E0B0E02D81AC01BD01B4
:1001E00083E090E00E94C9058E838A81882331F0E4
:1001F0008C81882319F08E81882329F485E290E090
:1002000022E0FC0120836CE180E090E00E9471001C
:1002100098878F8380E090E00E9467009A878987A3
:100220006DE181E090E00E9471009C878B878F8157
:100230009885892B41F08B859C85892B21F08985B8
:100240009A85892B29F485E290E022E0FC01208345
:10025000188ECE010D9642E06AE00E944E01CE015A
:100260000D966FEF0E94F601CE010D966EEF0E9483
:10027000F6019E01285E3F4FCE010D96B9010E9406
:1002800096029E01285E3F4FCE010D96B9010E9455
:100290009602CE010D960E947702FFCFCF93DF9397
:1002A00000D000D000D0CDB7DEB79C838B836D83A8
:1002B0004E838D81882319F08E81882311F48FEF6E
:1002C0003AC08D81882F90E00E947E0B9A838983AB
:1002D00089819A81892B11F48FEF2DC08B819C81AC
:1002E00029813A81FC01318320838B819C81FC012F
:1002F00012828B819C81FC0113828D81282F30E03A
:100300008B819C81FC01358324838B819C812E8190
:10031000FC0126838B819C81FC0117828B819C814F
:10032000FC0110868B819C81FC0111868B819C8154
:10033000FC01128681E026960FB6F894DEBF0FBE50
:10034000CDBFDF91CF910895CF93DF9300D000D040
:1003500000D0CDB7DEB79E838D838D819E81892BA2
:1003600011F48FEF3AC08D819E81FC0184819581CB
:1003700089838D819E81FC0186818A838981282FD2
:1003800030E08A81882F90E0820F931F9C018D813D
:100390009E81FC0180819181B9010E949F0C9C8308
:1003A0008B838B819C81892B11F48FEF16C08D81FB
:1003B0009E812B813C81FC01318320838981282F00
:1003C00030E08A81882F90E0820F931F9C018D81FD
:1003D0009E81FC013583248381E026960FB6F89434
:1003E000DEBF0FBECDBFDF91CF910895CF93DF93D6
:1003F00000D000D000D0CDB7DEB79D838C836E8354
:100400008C819D81FC01838189838C819D81FC018C
:1004100082818A838C819D81FC01848195818B837B
:1004200099818B81981749F48C819D81FC011382FD
:100430008C819D8121E0FC0122878C819D81FC01C2
:100440008285813081F59A818981981761F58C8147
:100450009D810E94A401813021F58C819D8122E043
:10046000FC0122878C819D812981FC0121878C815F
:100470009D812B81FC0127838C819D812B81FC0137
:1004800020878C819D81FC0184819581282F8C811E
:100490009D81FC018681281B8C819D81FC01238329
:1004A00002C08FEF1BC08C819D81FC0120813181B6
:1004B0008C819D81FC018381882F90E0820F931FA6
:1004C0002E81FC0120838C819D81FC01838121E0B0
:1004D000280F8C819D81FC01238381E026960FB635
:1004E000F894DEBF0FBECDBFDF91CF910895CF93BB
:1004F000DF9300D0CDB7DEB79A83898389819A8153
:10050000892B11F48FEF0DC089819A81FC018081C4
:1005100091810E94160C89819A81FC0111821082BE
:1005200081E00F900F90DF91CF910895CF93DF93EB
:1005300000D000D01F92CDB7DEB79B838A837D8326
:100540006C838A819B81FC01828189838A819B8162
:10055000FC018285882361F48A819B81FC012281D0
:100560008A819B81FC018381281711F480E092C06D
:100570008A819B81FC01208131818A819B81FC01E0
:100580008281882F90E0820F931FFC0120818C8153
:100590009D81FC0120838A819B81FC018285882FBB
:1005A00090E08130910589F08230910551F1892BDD
:1005B00009F05FC08A819B81FC01828121E0280FC4
:1005C0008A819B81FC01228356C08981282F30E0DB
:1005D0008A819B81FC0184819581019728173907C5
:1005E00029F48A819B81FC01128245C08A819B810A
:1005F000FC01828121E0280F8A819B81FC012283FA
:100600003AC08981282F30E08A819B81FC01878153
:10061000882F90E001972817390729F48A819B8158
:10062000FC01128228C08981282F30E08A819B81B9
:10063000FC018185882F90E001972817390771F414
:100640008A819B81FC0120858A819B81FC01228318
:100650008A819B8121E0FC0122870DC08A819B81D8
:10066000FC01828121E0280F8A819B81FC01228389
:1006700002C08FEF0FC08A819B81FC0122818A8199
:100680009B81FC018381281721F48A819B81FC01D5
:10069000128681E00F900F900F900F900F90DF91D6
:1006A000CF9108951F920F9200905F000F92112436
:1006B000EF92FF920F931F932F933F934F935F936C
:1006C0008F939F93AF93BF93EF93FF93CF93DF935A
:1006D0001F92CDB7DEB78091450190914601A09160
:1006E0004701B0914801892B8A2B8B2B69F58BE24E
:1006F00090E02BE230E0F901308120E42327FC0177
:1007000020838091390190913A01A0913B01B091F1
:100710003C01892B8A2B8B2B09F451C08091390124
:1007200090913A01A0913B01B0913C018093450129
:1007300090934601A0934701B093480187E490E06D
:100740002FEFFC0120833BC0809145019091460131
:10075000A0914701B09148018F3F9105A105B105D6
:1007600009F048F48091450190914601A09147011C
:10077000B091480101C08FEF898387E490E029811F
:10078000FC012083209145013091460140914701B1
:10079000509148018981882F90E0A0E0B0E0790174
:1007A0008A01E81AF90A0A0B1B0BD801C7018093CA
:1007B000450190934601A0934701B0934801000082
:1007C0000F90DF91CF91FF91EF91BF91AF919F91EA
:1007D0008F915F914F913F912F911F910F91FF90BA
:1007E000EF900F9000925F000F901F9018951F924E
:1007F0000F9200905F000F921124AF92BF92CF92A0
:10080000DF92EF92FF920F931F932F933F934F939B
:100810005F936F937F938F939F93AF93BF93EF9368
:10082000FF93CF93DF931F92CDB7DEB7809149013D
:1008300090914A01A0914B01B0914C01892B8A2BD8
:100840008B2B09F060C08BE290E02BE230E0F901E5
:10085000308120E82327FC012083A0902D01B09057
:100860002E01C0902F01D0903001E0903101F09026
:10087000320100913301109134012A2D3B2D4C2D72
:100880005D2D6E2D7F2D802F912FA1E00E945A0BA0
:10089000A22EB32EC42ED52EE62EF72E082F192FFA
:1008A000A0922D01B0922E01C0922F01D092300162
:1008B000E0923101F0923201009333011093340140
:1008C00080913D0190913E01A0913F01B091400186
:1008D000892B8A2B8B2B09F451C080913D0190917B
:1008E0003E01A0913F01B091400180934901909356
:1008F0004A01A0934B01B0934C0183EB90E02FEFA2
:10090000FC0120833BC08091490190914A01A09154
:100910004B01B0914C018F3F9105A105B10509F044
:1009200048F48091490190914A01A0914B01B09106
:100930004C0101C08FEF898383EB90E02981FC019A
:1009400020832091490130914A0140914B015091FF
:100950004C018981882F90E0A0E0B0E079018A0104
:10096000E81AF90A0A0B1B0BD801C7018093490149
:1009700090934A01A0934B01B0934C0100000F905B
:10098000DF91CF91FF91EF91BF91AF919F918F91A7
:100990007F916F915F914F913F912F911F910F9197
:1009A000FF90EF90DF90CF90BF90AF900F900092AC
:1009B0005F000F901F9018951F920F9200905F009C
:1009C0000F921124AF92BF92CF92DF92EF92FF92DB
:1009D0000F931F932F933F934F935F936F937F9347
:1009E0008F939F93AF93BF93EF93FF93CF93DF9337
:1009F00000D0CDB7DEB78091410190914201A09126
:100A00004301B0914401892B8A2B8B2B09F065C0DF
:100A100085E290E025E230E0F901308121E02327F2
:100A2000FC012083A0901D01B0901E01C0901F0109
:100A3000D0902001E0902101F0902201009123014B
:100A4000109124012A2D3B2D4C2D5D2D6E2D7F2DD7
:100A5000802F912FA1E00E945A0BA22EB32EC42EFC
:100A6000D52EE62EF72E082F192FA0921D01B09239
:100A70001E01C0921F01D0922001E0922101F0924C
:100A8000220100932301109324018091350190915C
:100A90003601A0913701B0913801892B8A2B8B2B1D
:100AA00009F458C08091350190913601A091370129
:100AB000B09138018093410190934201A09343018A
:100AC000B093440189E890E02FEFFC01208388E88F
:100AD00090E02FEFFC0120833DC080914101909177
:100AE0004201A0914301B09144010097A140B1059A
:100AF00048F48091410190914201A0914301B0914D
:100B0000440102C08FEF9FEF9A83898388E890E0C9
:100B100029813A81FC013183208320914101309168
:100B20004201409143015091440189819A81CC0155
:100B3000A0E0B0E079018A01E81AF90A0A0B1B0B60
:100B4000D801C7018093410190934201A0934301D2
:100B5000B093440100000F900F90DF91CF91FF916F
:100B6000EF91BF91AF919F918F917F916F915F9125
:100B70004F913F912F911F910F91FF90EF90DF9038
:100B8000CF90BF90AF900F9000925F000F901F909A
:100B900018952F923F924F925F926F927F928F9211
:100BA0009F92AF92BF92CF92DF92EF92FF920F93FC
:100BB0001F93CF93DF93CDB7DEB7E0970FB6F894CE
:100BC000DEBF0FBECDBF9BA78AA74CA75DA76EA7B0
:100BD0007FA728AB8091100190911101A091120183
:100BE000B0911301892B8A2B8B2B11F480E04FC419
:100BF0008CA59DA5AEA5BFA5892B8A2B8B2B11F4A7
:100C000080E045C48091100190911101A0911201E2
:100C1000B09113011C012D01612C712C43018AA597
:100C20009BA59C0140E050E060E070E0CB01A22E6B
:100C3000B32EC42ED52EE62EF72E082F192F222DD7
:100C4000332D442D552D662D772D882D992D0E94FD
:100C50007B0AA22EB32EC42ED52EE62EF72E082FF9
:100C6000192F2A2C3B2C4C2C5D2C6E2C7F2C802E8B
:100C7000912E8CA59DA5AEA5BFA59C01AD0160E000
:100C800070E0CB01A22EB32EC42ED52EE62EF72E69
:100C9000082F192F222D332D442D552D662D772DFC
:100CA000882D992D0E94D60A222E332E442E552EA1
:100CB000662E772E882E992EA22CB32CC42CD52CE0
:100CC000E62CF72C082D192D86E9282E312C412CE5
:100CD000512C612C712C43012A2D3B2D4C2D5D2D67
:100CE0006E2D7F2D802F912FA22CB32CC42CD52CB0
:100CF000E62CF72C082D192D0E94660B09F010F434
:100D000080E0C5C38AA59BA59C0140E050E080918E
:100D1000100190911101A0911201B0911301BC0139
:100D2000CD010E94600ADC01CB019C01AD0160E0B5
:100D300070E0CB01288739874A875B876C877D877E
:100D40008E879F878CA59DA5AEA5BFA59C01AD01F3
:100D500060E070E0CB01A22EB32EC42ED52EE62E7D
:100D6000F72E082F192F288539854A855B856C85D4
:100D70007D858E859F850E94D60AA22EB32EC42E15
:100D8000D52EE62EF72E082F192FA88AB98ACA8ADF
:100D9000DB8AEC8AFD8A0E8B1F8B1A8219821B82DA
:100DA0001C821D821E8288A9882F90E081309105C7
:100DB00009F451C08230910509F496C0892B09F0DD
:100DC000DCC08FE690E02FE630E0F90120812D7F36
:100DD000FC012083288939894A895B896C897D894E
:100DE0008E899F89225031094F4F5F4F6F4F7F4F40
:100DF0008F4F9F4F222E332E442E552E662E772E48
:100E0000882E992EAA24AA94BB24BA94C12CD12C42
:100E1000E12CF12C00E010E0222D332D442D552D36
:100E2000662D772D882D992D0E94D60AA22EB32EDD
:100E3000C42ED52EE62EF72E082F192F2A2D3B2D46
:100E40004C2D5D2D6E2D7F2D802F912F2B833C837C
:100E50004D835E8394C08EE690E02EE630E0F9018B
:100E600020812D7FFC012083288939894A895B896B
:100E70006C897D898E899F8922503F4F4F4F5F4FEC
:100E80006F4F7F4F8F4F9F4F222E332E442E552E64
:100E9000662E772E882E992EAA24AA94B12CC12CC6
:100EA000D12CE12CF12C00E010E0222D332D442D2B
:100EB000552D662D772D882D992D0E94D60AA22EAC
:100EC000B32EC42ED52EE62EF72E082F192F2A2D3D
:100ED0003B2D4C2D5D2D6E2D7F2D802F912F2B8343
:100EE0003C834D835E834BC080E790E020E730E099
:100EF000F90120812D7FFC012083288939894A89C5
:100F00005B896C897D898E899F8922503F4F4F4F25
:100F10005F4F6F4F7F4F8F4F9F4F222E332E442EA8
:100F2000552E662E772E882E992EAA24AA94B12C9F
:100F3000C12CD12CE12CF12C00E010E0222D332D1E
:100F4000442D552D662D772D882D992D0E94D60A7A
:100F5000A22EB32EC42ED52EE62EF72E082F192F33
:100F60002A2D3B2D4C2D5D2D6E2D7F2D802F912F09
:100F70002B833C834D835E8302C080E088C28B81DB
:100F80009C81AD81BE8181309440A105B10508F4FA
:100F90009DC080E094E09A83898388A9E82FF0E0DF
:100FA000288939894A895B896C897D898E899F89DD
:100FB0000AE00E94350BA22EB32EC42ED52EE62EAB
:100FC000F72E082F192FD601C5019F01220F331FBD
:100FD000220F331F2B5C3E4FF90180839183A28344
:100FE000B38388A9282F30E088A9882F90E0880F44
:100FF000991F880F991F8B5C9E4FFC018081918106
:10100000A281B381220F331F220F331F2F5B3E4F6C
:10101000F90180839183A283B38388A9882F90E00C
:1010200081309105F9F082309105A9F1892B09F001
:101030004BC081E890E02DE0FC01208389E890E03E
:101040002FEFFC01208388E890E02FEFFC01208344
:101050008FE690E02FE630E0F90120812260FC016C
:10106000208332C084E490E022E0FC01208385E408
:1010700090E025E0FC0120838EE690E02EE630E053
:10108000F90120812260FC01208387E490E02FEFAA
:10109000FC01208319C080EB90E022E0FC0120835A
:1010A00081EB90E027E0FC01208380E790E020E7DF
:1010B00030E0F90120812260FC01208383EB90E085
:1010C0002FEFFC012083000081E0E1C188A9882F77
:1010D00090E0880F991F880F991F8B5C9E4FFC0131
:1010E00010821182128213828AE0E6E0F1E0DE01D2
:1010F000909601900D928A95E1F71F822EC08F8104
:10110000882F90E0880F991F9E012F5F3F4F820F1D
:10111000931F4F96FC01808191819C0140E050E03B
:101120008B819C81AD81BE81281739074A075B07F7
:1011300088F08F81882F90E0880F991F9E012F5F84
:101140003F4F820F931F4F96FC01808191819A83BC
:10115000898306C08F818F5F8F838F81853078F27E
:1011600089819A819C0140E050E08CA59DA5AEA5A7
:10117000BFA5BC01CD010E94600ADC01CB01888FB4
:10118000998FAA8FBB8F888D998DAA8DBB8D892B46
:101190008A2B8B2B11F480E07AC1888D998DAA8DD2
:1011A000BB8DB695A795979587955C016D01E12C50
:1011B000F12C87012A2D3B2D4C2D5D2D6E2D7F2D81
:1011C000802F912FA884B984CA84DB84EC84FD84A9
:1011D0000E851F850E94510B222E332E442E552E34
:1011E000662E772E882E992E888D998DAA8DBB8D8F
:1011F0009C01AD0160E070E0CB01A22EB32EC42EA5
:10120000D52EE62EF72E082F192F222D332D442D03
:10121000552D662D772D882D992D0E94D60AA22E48
:10122000B32EC42ED52EE62EF72E082F192F2A2DD9
:101230003B2D4C2D5D2D6E2D7F2D802F912F2C8FD2
:101240003D8F4E8F5F8F8C8D9D8DAE8DBF8D892B89
:101250008A2B8B2B11F480E01AC188A9813019F0F8
:1012600088A9823061F48C8D9D8DAE8DBF8D8F3FAE
:101270009105A105B10519F010F080E008C188A919
:10128000882351F48C8D9D8DAE8DBF8D0097A1402C
:10129000B10510F080E0FBC088A9882F90E0813074
:1012A000910509F45FC08230910509F4A7C0892B2C
:1012B00009F0ECC089819A8180349105E9F081348C
:1012C000910530F48130910559F0089779F026C0E6
:1012D000811521E09207B1F081159440C9F01EC03C
:1012E00081E890E021E0FC01208318C081E890E0D3
:1012F00022E0FC01208312C081E890E023E0FC01A1
:1013000020830CC081E890E024E0FC01208306C02B
:1013100081E890E025E0FC012083000081E890E076
:1013200021E830E0F90120812860FC01208329E8D0
:1013300030E08C8D9D8DAE8DBF8D892F9A2FAB2F78
:10134000BB27F90180838FE690E02FE630E0F901BA
:1013500020812260FC01208388E890E02C8DFC0134
:10136000208394C089819A8180349105E9F0813489
:10137000910530F48130910559F0089779F026C035
:101380008115F1E09F07B1F081159440C9F01EC0AE
:1013900085E490E021E0FC01208318C085E490E022
:1013A00022E0FC01208312C085E490E023E0FC01F0
:1013B00020830CC085E490E024E0FC01208306C07B
:1013C00085E490E025E0FC012083000084E490E0C7
:1013D00024E430E0F90120812260FC0120838EE6C4
:1013E00090E02EE630E0F90120812260FC012083AC
:1013F00087E490E02C8DFC01208348C089819A818C
:1014000080349105E9F08134910530F48130910503
:1014100059F0089779F026C08115F1E09F07B1F0E7
:1014200081159440C9F01EC081EB90E021E0FC01E1
:10143000208318C081EB90E022E0FC01208312C0E1
:1014400081EB90E024E0FC0120830CC081EB90E074
:1014500026E0FC01208306C081EB90E027E0FC0140
:101460002083000080EB90E022E0FC01208380E7F5
:1014700090E020E730E0F90120812260FC01208328
:1014800083EB90E02C8DFC012083000081E0E0964E
:101490000FB6F894DEBF0FBECDBFDF91CF911F9185
:1014A0000F91FF90EF90DF90CF90BF90AF909F9003
:1014B0008F907F906F905F904F903F902F90089506
:1014C000DB018F939F930E94700ABF91AF91A29FFF
:1014D000800D911DA39F900DB29F900D1124089532
:1014E0000E946F0BA59F900DB49F900DA49F800D3F
:1014F000911D11240895DF93CF931F930F939A9D0D
:10150000F02D219FF00D8B9DF00D8A9DE02DF10DAA
:10151000039FF00D029FE00DF11D4E9DE00DF11DAA
:101520005E9DF00D4F9DF00D7F936F93BF92AF9234
:101530005F934F93D5010E946F0B8B01AC01D701D4
:101540000E946F0BEB01E80FF91FD6010E94CB0A36
:101550002F913F91D6010E946F0BC60FD71FE81F36
:10156000F91FAF91BF910E94CB0A2F913F910E942A
:101570006F0BC60FD71FE81FF91FD6010E946F0B14
:10158000E60FF71F9801BE01CF0111240F911F91A3
:10159000CF91DF9108950E946F0B460F571FC81F10
:1015A000D91F08F431960895689401C0E8948F9289
:1015B0009F92CF93DF930E94E20ADF91CF919F9099
:1015C0008F90089588249924F401E401B0E49F9356
:1015D000AA279A158B049C04ED05FE05CF05D007BC
:1015E000A10798F4AD2FDC2FCF2FFE2FE92D982CDB
:1015F000892E982F872F762F652F542F432F322F28
:101600002227B85031F7BF9127C01B2EBF91BB27AF
:10161000220F331F441F551F661F771F881F991FF6
:10162000881C991CEE1FFF1FCC1FDD1FAA1FBB1FAC
:101630008A149B04EC05FD05CE05DF05A007B10764
:1016400048F08A189B08EC09FD09CE09DF09A00BB8
:10165000B10B21601A94E1F62EF49401AF01BE01A2
:10166000CD01000C089597FB10F8169400080F9315
:10167000083098F00850232F342F452F562F672F0E
:10168000782F892F902DF4CF05949795879577958E
:10169000679557954795379527950A95AAF70F911E
:1016A00008952A0D3B1D4C1D5D1D6E1D7F1D801F65
:1016B000911F08950024A7FD00942A0F301D401D9E
:1016C000501D601D701D801D901D08952A153B053D
:1016D0004C055D056E057F05800791070895A29F63
:1016E000B001B39FC001A39F700D811D1124911DF6
:1016F000B29F700D811D1124911D08950F931F93AA
:10170000CF93DF938230910510F482E090E0E09176
:101710004F01F091500120E030E0A0E0B0E03097C0
:1017200019F1408151810281138148175907C8F08E
:101730008417950769F4109731F012960C9312975D
:1017400013961C9327C000934F011093500122C0A1
:101750002115310519F04217530718F49A01BD01FC
:10176000EF01DF01F801DBCF21153105F9F0281B6E
:10177000390B2430310580F48A819B816115710514
:1017800021F0FB019383828304C0909350018093E6
:101790004F01FE01329644C0FE01E20FF31F819318
:1017A000919322503109398328833AC020914D0109
:1017B00030914E01232B41F420910201309103011D
:1017C00030934E0120934D01209100013091010191
:1017D0002115310541F42DB73EB7409104015091D8
:1017E0000501241B350BE0914D01F0914E01E217EC
:1017F000F307A0F42E1B3F0B2817390778F0AC0134
:101800004E5F5F4F2417350748F04E0F5F1F509310
:101810004E0140934D018193919302C0E0E0F0E0CE
:10182000CF01DF91CF911F910F910895CF93DF9357
:10183000009709F481C0FC01329713821282A091B3
:101840004F01B0915001109781F420813181820FB6
:10185000931F20914D0130914E012817390751F502
:10186000F0934E01E0934D0167C0ED0120E030E0C0
:10187000CE17DF0740F44A815B819E014115510577
:10188000F1F0EA01F5CFD383C28340815181840F07
:10189000951FC817D90759F488819981840F951F1E
:1018A0000296918380838A819B8193838283211511
:1018B000310529F4F0935001E0934F013DC0E90157
:1018C000FB83EA8349915991C40FD51FEC17FD079B
:1018D00061F480819181840F951F0296E9019983BB
:1018E0008883828193819B838A83E0E0F0E0129673
:1018F0008D919C911397009719F0FD01DC01F7CFB2
:101900008D919C9111979D012E5F3F4F820F931FE8
:1019100020914D0130914E012817390769F4309715
:1019200029F41092500110924F0102C013821282CA
:10193000B0934E01A0934D01DF91CF910895A0E0A7
:10194000B0E0E5EAFCE00C94720DEC01009721F4A4
:10195000CB010E947E0BB4C0FC01E60FF71F9C0177
:1019600022503109E217F30708F4A8C0D9010D91FC
:101970001C91119706171707B0F00530110508F4F0
:101980009BC0C80104978617970708F495C00250BA
:101990001109061B170B019311936D937C93CF01D3
:1019A0000E94160C89C05B01A01AB10A4C01800E7E
:1019B000911EA0914F01B0915001612C712CE12C2E
:1019C000F12C109709F446C08D919C911197A815A0
:1019D000B905B1F56C0142E0C40ED11CCA14DB0498
:1019E00078F14C018A189B08640142E0C40ED11CB6
:1019F0001296BC9012971396AC91B5E0CB16D10419
:101A000040F0B282A38391828082D9016D937C934E
:101A100009C00E5F1F4F800F911FF90191838083D2
:101A2000EB2DFA2FE114F10431F0D7011396FC935A
:101A3000EE93129741C0F0935001E0934F013CC0E8
:101A40006816790608F43C017D0112960D90BC9150
:101A5000A02DB7CF80914D0190914E018816990627
:101A6000E1F466167706C8F48091000190910101B7
:101A7000009741F48DB79EB7409104015091050144
:101A8000841B950BE817F907C8F4F0934E01E09317
:101A90004D01F901718360830FC0CB010E947E0B61
:101AA0007C01009759F0A801BE010E94650DCE018E
:101AB0000E94160CC70104C0CE0102C080E090E075
:101AC000CDB7DEB7EEE00C948E0DFB01DC0102C059
:101AD00001900D9241505040D8F708952F923F92B7
:101AE0004F925F926F927F928F929F92AF92BF922E
:101AF000CF92DF92EF92FF920F931F93CF93DF93DA
:101B0000CDB7DEB7CA1BDB0B0FB6F894DEBF0FBE36
:101B1000CDBF09942A88398848885F846E847D8483
:101B20008C849B84AA84B984C884DF80EE80FD8085
:101B30000C811B81AA81B981CE0FD11D0FB6F894FB
:0E1B4000DEBF0FBECDBFED010895F894FFCFBC
:101B4E0000005101200001000800400000010004C7
:0C1B5E000024F40040420F00E8030100E6
:00000001FF
