:100000000C9434000C9451000C9451000C94510049
:100010000C9451000C9451000C9451000C94F10379
:100020000C9451000C9451000C9451000C94D60483
:100030000C9451000C9451000C944C030C945100FE
:100040000C9451000C9451000C9451000C945100EC
:100050000C9451000C9451000C9453000C945100DA
:100060000C946B000C94510011241FBECFEFD8E00C
:10007000DEBFCDBF11E0A0E0B1E0EEEFFBE102C0DA
:1000800005900D92A032B107D9F721E0A0E2B1E0CE
:1000900001C01D92A535B207E1F70E94BF000C9484
:1000A000FD0D0C9400001F920F9200905F000F92C4
:1000B00011248F93CF93DF93CDB7DEB781E0809388
:1000C00020010000DF91CF918F910F9000925F008F
:1000D0000F901F9018951F920F9200905F000F9243
:1000E00011248F93CF93DF93CDB7DEB781E0809358
:1000F00006010000DF91CF918F910F9000925F0079
:100100000F901F9018950F93CF93DF9300D000D0DE
:1001100000D0CDB7DEB79A8389836B834C832D8360
:100120000E8389819A81892B11F480E01EC0898118
:100130009A812B81FC01208389819A812C81FC0189
:10014000218389819A812D81FC01228389819A8171
:100150002E81FC01238389EB90E0FC01108288EB67
:1001600090E028E4FC01208381E026960FB6F89405
:10017000DEBF0FBECDBFDF91CF910F9108950F93DA
:10018000CF93DF93CDB7DEB768970FB6F894DEBF95
:100190000FBECDBF789484E290E024E230E0F90114
:1001A00020812360FC0120838AE290E02AE230E093
:1001B000F9012081206CFC01208382E08A838091F8
:1001C0001C0190911D01CC01A0E0B0E02A81AC019E
:1001D000BD0184E690E00E94BE068B8381E08C83A3
:1001E0008091180190911901A0911A01B0911B0101
:1001F0002C81AC01BD0188EE93E00E94BE068D8388
:100200001E8280911E01882F90E0A0E0B0E02E8138
:10021000AC01BD0183E090E00E94BE068F838B811C
:10022000882331F08D81882319F08F81882329F468
:1002300085E290E022E0FC0120831B8ACE01089633
:1002400042E06AE00E944801198210C0CE0108967F
:1002500069810E94F0019E012D5E3F4FCE010896FC
:10026000B9010E94900289818F5F898389818F31D2
:1002700068F3CE0108960E947102CE0144960AEA04
:1002800021E040E060E20E94830080910601FDCF02
:10029000CF93DF9300D000D000D0CDB7DEB79C83E2
:1002A0008B836D834E838D81882319F08E81882303
:1002B00011F480E03AC08D81882F90E00E94D60B27
:1002C0009A83898389819A81892B11F480E02DC0DA
:1002D0008B819C8129813A81FC01318320838B8130
:1002E0009C81FC0112828B819C81FC0113828D8197
:1002F000282F30E08B819C81FC01358324838B8106
:100300009C812E81FC0126838B819C81FC011782BC
:100310008B819C81FC0110868B819C81FC01118664
:100320008B819C81FC01128681E026960FB6F894A1
:10033000DEBF0FBECDBFDF91CF910895CF93DF9386
:1003400000D000D000D0CDB7DEB79E838D838D81E5
:100350009E81892B11F480E03AC08D819E81FC0141
:100360008481958189838D819E81FC0186818A8328
:100370008981282F30E08A81882F90E0820F931F97
:100380009C018D819E81FC0180819181B9010E9437
:10039000F70C9C838B838B819C81892B11F480E0EB
:1003A00016C08D819E812B813C81FC01318320838D
:1003B0008981282F30E08A81882F90E0820F931F57
:1003C0009C018D819E81FC013583248381E02696EA
:1003D0000FB6F894DEBF0FBECDBFDF91CF91089569
:1003E000CF93DF9300D000D000D0CDB7DEB79D8390
:1003F0008C836E838C819D81FC01838189838C81B8
:100400009D81FC0182818A838C819D81FC01848194
:1004100095818B8399818B81981749F48C819D817B
:10042000FC0113828C819D8121E0FC0122878C815B
:100430009D81FC018285813081F59A81898198179F
:1004400061F58C819D810E949E01813021F58C8116
:100450009D8122E0FC0122878C819D812981FC0104
:1004600021878C819D812B81FC0127838C819D813B
:100470002B81FC0120878C819D81FC0184819581E9
:10048000282F8C819D81FC018681281B8C819D8178
:10049000FC01238302C080E01BC08C819D81FC0194
:1004A000208131818C819D81FC018381882F90E0A6
:1004B000820F931F2E81FC0120838C819D81FC0182
:1004C000838121E0280F8C819D81FC01238381E0C1
:1004D00026960FB6F894DEBF0FBECDBFDF91CF9149
:1004E0000895CF93DF9300D0CDB7DEB79A83898389
:1004F00089819A81892B11F480E00DC089819A81CC
:10050000FC01808191810E946E0C89819A81FC019D
:100510001182108281E00F900F90DF91CF910895AA
:10052000CF93DF9300D000D01F92CDB7DEB79B836F
:100530008A837D836C838A819B81FC01828189838C
:100540008A819B81FC018285882361F48A819B8159
:10055000FC0122818A819B81FC018381281711F48F
:1005600082E092C08A819B81FC01208131818A8155
:100570009B81FC018281882F90E0820F931FFC01F8
:1005800020818C819D81FC0120838A819B81FC01DB
:100590008285882F90E08130910589F08230910525
:1005A00051F1892B09F05FC08A819B81FC01828116
:1005B00021E0280F8A819B81FC01228356C089811A
:1005C000282F30E08A819B81FC01848195810197ED
:1005D0002817390729F48A819B81FC01128245C0C2
:1005E0008A819B81FC01828121E0280F8A819B8185
:1005F000FC0122833AC08981282F30E08A819B81C7
:10060000FC018781882F90E001972817390729F48A
:100610008A819B81FC01128228C08981282F30E0C9
:100620008A819B81FC018185882F90E001972817A2
:10063000390771F48A819B81FC0120858A819B8125
:10064000FC0122838A819B8121E0FC0122870DC06D
:100650008A819B81FC01828121E0280F8A819B8114
:10066000FC01228302C080E00FC08A819B81FC01D3
:1006700022818A819B81FC018381281721F48A8150
:100680009B81FC01128681E00F900F900F900F90DC
:100690000F90DF91CF9108951F920F9200905F000D
:1006A0000F921124EF92FF920F931F932F933F937A
:1006B0004F935F938F939F93AF93BF93EF93FF936A
:1006C000CF93DF931F92CDB7DEB780914901909110
:1006D0004A01A0914B01B0914C01892B8A2B8B2BA5
:1006E00069F58BE290E02BE230E0F901308120E403
:1006F0002327FC01208380913D0190913E01A09130
:100700003F01B0914001892B8A2B8B2B09F451C0FA
:1007100080913D0190913E01A0913F01B091400137
:100720008093490190934A01A0934B01B0934C01EF
:1007300087E490E02FEFFC0120833BC080914901CA
:1007400090914A01A0914B01B0914C018F3F9105CE
:10075000A105B10509F048F48091490190914A0141
:10076000A0914B01B0914C0101C08FEF898387E4C8
:1007700090E02981FC0120832091490130914A01B8
:1007800040914B0150914C018981882F90E0A0E06D
:10079000B0E079018A01E81AF90A0A0B1B0BD801AB
:1007A000C7018093490190934A01A0934B01B093F4
:1007B0004C0100000F90DF91CF91FF91EF91BF911D
:1007C000AF919F918F915F914F913F912F911F9189
:1007D0000F91FF90EF900F9000925F000F901F908D
:1007E00018951F920F9200905F000F921124AF9204
:1007F000BF92CF92DF92EF92FF920F931F932F93AE
:100800003F934F935F936F937F938F939F93AF9398
:10081000BF93EF93FF93CF93DF931F92CDB7DEB7D4
:1008200080914D0190914E01A0914F01B0915001E6
:10083000892B8A2B8B2B09F060C08BE290E02BE296
:1008400030E0F901308120E82327FC012083A090CB
:100850003101B0903201C0903301D0903401E0906A
:100860003501F090360100913701109138012A2DA1
:100870003B2D4C2D5D2D6E2D7F2D802F912FA1E0D6
:100880000E94B20BA22EB32EC42ED52EE62EF72E2A
:10089000082F192FA0923101B0923201C09233017A
:1008A000D0923401E0923501F09236010093370185
:1008B000109338018091410190914201A091430130
:1008C000B0914401892B8A2B8B2B09F451C0809164
:1008D000410190914201A0914301B0914401809364
:1008E0004D0190934E01A0934F01B093500183EBC3
:1008F00090E02FEFFC0120833BC080914D0190914F
:100900004E01A0914F01B09150018F3F9105A1057B
:10091000B10509F048F480914D0190914E01A091EC
:100920004F01B091500101C08FEF898383EB90E0BC
:100930002981FC01208320914D0130914E0140918D
:100940004F01509150018981882F90E0A0E0B0E0E4
:1009500079018A01E81AF90A0A0B1B0BD801C701B1
:1009600080934D0190934E01A0934F01B09350019D
:1009700000000F90DF91CF91FF91EF91BF91AF9168
:100980009F918F917F916F915F914F913F912F91A7
:100990001F910F91FF90EF90DF90CF90BF90AF909D
:1009A0000F9000925F000F901F9018951F920F926A
:1009B00000905F000F921124AF92BF92CF92DF920E
:1009C000EF92FF920F931F932F933F934F935F9359
:1009D0006F937F938F939F93AF93BF93EF93FF9307
:1009E000CF93DF9300D0CDB7DEB7809145019091D2
:1009F0004601A0914701B0914801892B8A2B8B2B8E
:100A000009F065C085E290E025E230E0F90130812F
:100A100021E02327FC012083A0902101B090220136
:100A2000C0902301D0902401E0902501F090260190
:100A300000912701109128012A2D3B2D4C2D5D2D71
:100A40006E2D7F2D802F912FA1E00E94B20BA22E40
:100A5000B32EC42ED52EE62EF72E082F192FA092D6
:100A60002101B0922201C0922301D0922401E09290
:100A70002501F0922601009327011093280180910F
:100A8000390190913A01A0913B01B0913C01892B31
:100A90008A2B8B2B09F458C08091390190913A012F
:100AA000A0913B01B0913C01809345019093460198
:100AB000A0934701B093480189E890E02FEFFC0133
:100AC000208388E890E02FEFFC0120833DC08091D7
:100AD000450190914601A0914701B09148010097CE
:100AE000A140B10548F48091450190914601A09143
:100AF0004701B091480102C08FEF9FEF9A8389832D
:100B000088E890E029813A81FC013183208320919B
:100B1000450130914601409147015091480189813A
:100B20009A81CC01A0E0B0E079018A01E81AF90AC3
:100B30000A0B1B0BD801C701809345019093460116
:100B4000A0934701B093480100000F900F90DF91F0
:100B5000CF91FF91EF91BF91AF919F918F917F9135
:100B60006F915F914F913F912F911F910F91FF9046
:100B7000EF90DF90CF90BF90AF900F9000925F000A
:100B80000F901F901895CF93DF9300D01F92CDB791
:100B9000DEB789837B836A838981882F90E08130E7
:100BA000910509F450C08230910509F495C0892B54
:100BB00009F0DBC08A819B818034910529F1813461
:100BC000910530F48130910559F0089799F0CFC024
:100BD000811521E0920711F18115944049F1C7C0B8
:100BE00081E890E021E830E0F90120812160FC01FA
:100BF000208328C081E890E021E830E0F9012081DD
:100C00002260FC0120831EC081E890E021E830E0F2
:100C1000F90120812360FC01208314C081E890E069
:100C200021E830E0F90120812460FC0120830AC022
:100C300081E890E021E830E0F90120812560FC01A5
:100C40002083000094C08A819B818034910529F122
:100C50008134910530F48130910559F0089799F06D
:100C600086C08115F1E09F0711F18115944049F18B
:100C70007EC085E490E025E430E0F9012081216028
:100C8000FC01208328C085E490E025E430E0F901F0
:100C900020812260FC0120831EC085E490E025E4D1
:100CA00030E0F90120812360FC01208314C085E439
:100CB00090E025E430E0F90120812460FC012083EC
:100CC0000AC085E490E025E430E0F9012081256048
:100CD000FC01208300004BC08A819B8180349105F8
:100CE00029F18134910530F48130910559F008974C
:100CF00099F03DC08115F1E09F0711F181159440F5
:100D000049F135C081EB90E021EB30E0F901208121
:100D10002160FC01208328C081EB90E021EB30E0D2
:100D2000F90120812260FC0120831EC081EB90E04C
:100D300021EB30E0F90120812460FC01208314C004
:100D400081EB90E021EB30E0F90120812660FC018D
:100D500020830AC081EB90E021EB30E0F901208193
:100D60002760FC012083000002C080E001C081E018
:100D70000F900F900F90DF91CF9108952F923F9297
:100D80004F925F926F927F928F929F92AF92BF929B
:100D9000CF92DF92EF92FF920F931F93CF93DF9347
:100DA000CDB7DEB7E1970FB6F894DEBF0FBECDBF6B
:100DB0009CA78BA74DA75EA76FA778AB29AB8091A7
:100DC000140190911501A0911601B0911701892B82
:100DD0008A2B8B2B11F480E0B2C38DA59EA5AFA505
:100DE000B8A9892B8A2B8B2B11F480E0A8C38091A2
:100DF000140190911501A0911601B09117011C01E9
:100E00002D01612C712C43018BA59CA59C0140E018
:100E100050E060E070E0CB01A22EB32EC42ED52EA0
:100E2000E62EF72E082F192F222D332D442D552D68
:100E3000662D772D882D992D0E94D30AA22EB32ED0
:100E4000C42ED52EE62EF72E082F192F2A2C3B2C38
:100E50004C2C5D2C6E2C7F2C802E912E8DA59EA56A
:100E6000AFA5B8A99C01AD0160E070E0CB01A22E56
:100E7000B32EC42ED52EE62EF72E082F192F222D95
:100E8000332D442D552D662D772D882D992D0E94BB
:100E90002E0B222E332E442E552E662E772E882E84
:100EA000992EA22CB32CC42CD52CE62CF72C082D73
:100EB000192D86E9282E312C412C512C612C712CB6
:100EC00043012A2D3B2D4C2D5D2D6E2D7F2D802F26
:100ED000912FA22CB32CC42CD52CE62CF72C082D4A
:100EE000192D0E94BE0B09F010F480E028C38BA5D9
:100EF0009CA59C0140E050E0809114019091150167
:100F0000A0911601B0911701BC01CD010E94B80A51
:100F1000DC01CB019C01AD0160E070E0CB012887D2
:100F200039874A875B876C877D878E879F878DA5EA
:100F30009EA5AFA5B8A99C01AD0160E070E0CB0112
:100F4000A22EB32EC42ED52EE62EF72E082F192F43
:100F5000288539854A855B856C857D858E859F854D
:100F60000E942E0BA22EB32EC42ED52EE62EF72EC7
:100F7000082F192FA88AB98ACA8ADB8AEC8AFD8AC7
:100F80000E8B1F8B1A8219821B821C821D821E826D
:100F900089A9882F90E08130910509F451C08230F1
:100FA000910509F496C0892B09F0DCC08FE690E02A
:100FB0002FE630E0F90120812D7FFC012083288974
:100FC00039894A895B896C897D898E899F892250FC
:100FD00031094F4F5F4F6F4F7F4F8F4F9F4F222EE3
:100FE000332E442E552E662E772E882E992EAA2427
:100FF000AA94BB24BA94C12CD12CE12CF12C00E092
:1010000010E0222D332D442D552D662D772D882D62
:10101000992D0E942E0BA22EB32EC42ED52EE62E75
:10102000F72E082F192F2A2D3B2D4C2D5D2D6E2DBF
:101030007F2D802F912F2B833C834D835E8394C023
:101040008EE690E02EE630E0F90120812D7FFC0154
:101050002083288939894A895B896C897D898E89B1
:101060009F8922503F4F4F4F5F4F6F4F7F4F8F4FA2
:101070009F4F222E332E442E552E662E772E882EED
:10108000992EAA24AA94B12CC12CD12CE12CF12C9C
:1010900000E010E0222D332D442D552D662D772DA7
:1010A000882D992D0E942E0BA22EB32EC42ED52E44
:1010B000E62EF72E082F192F2A2D3B2D4C2D5D2DB6
:1010C0006E2D7F2D802F912F2B833C834D835E834C
:1010D0004BC080E790E020E730E0F90120812D7FD0
:1010E000FC012083288939894A895B896C897D893B
:1010F0008E899F8922503F4F4F4F5F4F6F4F7F4FD9
:101100008F4F9F4F222E332E442E552E662E772E34
:10111000882E992EAA24AA94B12CC12CD12CE12C72
:10112000F12C00E010E0222D332D442D552D662D9D
:10113000772D882D992D0E942E0BA22EB32EC42E12
:10114000D52EE62EF72E082F192F2A2D3B2D4C2DAC
:101150005D2D6E2D7F2D802F912F2B833C834D8312
:101160005E8302C080E0EBC18B819C81AD81BE813A
:1011700081309440A105B10508F491C080E094E06D
:101180009A83898389A9E82FF0E0288939894A89D7
:101190005B896C897D898E899F890AE00E948D0B0D
:1011A000A22EB32EC42ED52EE62EF72E082F192FE1
:1011B000D601C5019F01220F331F220F331F275C69
:1011C0003E4FF90180839183A283B38389A9282F9D
:1011D00030E089A9882F90E0880F991F880F991F08
:1011E000875C9E4FFC0180819181A281B381220F97
:1011F000331F220F331F2B5B3E4FF90180839183F6
:10120000A283B38389A9882F90E081309105D9F01A
:101210008230910569F1892B09F03FC081E890E0A7
:101220002DE0FC01208389E890E02FEFFC01208372
:1012300088E890E02FEFFC0120838FE690E022E029
:10124000FC0120832AC084E490E022E0FC0120839A
:1012500085E490E025E0FC0120838EE690E022E02A
:10126000FC01208387E490E02FEFFC01208315C070
:1012700080EB90E022E0FC01208381EB90E027E00E
:10128000FC01208380E790E022E0FC01208383EBD7
:1012900090E02FEFFC012083000081E050C189A97C
:1012A000882F90E0880F991F880F991F875C9E4FA9
:1012B000FC0110821182128213828AE0EAE0F1E0DE
:1012C000DE01919601900D928A95E1F71F822EC062
:1012D0008F81882F90E0880F991F9E012F5F3F4FCD
:1012E000820F931F8096FC01808191819C0140E0D8
:1012F00050E08B819C81AD81BE81281739074A0758
:101300005B0788F08F81882F90E0880F991F9E01DE
:101310002F5F3F4F820F931F8096FC018081918148
:101320009A83898306C08F818F5F8F838F818530F9
:1013300078F289819A819C0140E050E08DA59EA5BC
:10134000AFA5B8A9BC01CD010E94B80ADC01CB0150
:10135000888F998FAA8FBB8F888D998DAA8DBB8D11
:10136000892B8A2B8B2B11F480E0E9C0888D998D15
:10137000AA8DBB8DB695A795979587955C016D0154
:10138000E12CF12C87012A2D3B2D4C2D5D2D6E2D4E
:101390007F2D802F912FA884B984CA84DB84EC84AC
:1013A000FD840E851F850E94A90B222E332E442E0C
:1013B000552E662E772E882E992E888D998DAA8D82
:1013C000BB8D9C01AD0160E070E0CB01A22EB32E7D
:1013D000C42ED52EE62EF72E082F192F222D332DB1
:1013E000442D552D662D772D882D992D0E942E0B7D
:1013F000A22EB32EC42ED52EE62EF72E082F192F8F
:101400002A2D3B2D4C2D5D2D6E2D7F2D802F912F64
:101410002C8F3D8F4E8F5F8F8C8D9D8DAE8DBF8DB0
:10142000892B8A2B8B2B11F480E089C089A981300C
:1014300019F089A9823061F48C8D9D8DAE8DBF8DA0
:101440008F3F9105A105B10519F010F080E077C03C
:1014500089A9882351F48C8D9D8DAE8DBF8D009709
:10146000A140B10510F080E06AC089819A81BC0179
:1014700089A90E94C30588A388A1882311F480E06C
:101480005EC089A9882F90E08130910549F18230B2
:101490009105E9F1892B09F051C081E080930701A2
:1014A00081E890E021E830E0F90120812860FC012A
:1014B000208329E830E08C8D9D8DAE8DBF8D892FE6
:1014C0009A2FAB2FBB27F90180838FE690E022E0B3
:1014D000FC01208388E890E02C8DFC0120832EC045
:1014E00081E08093080184E490E024E430E0F90195
:1014F00020812260FC0120838EE690E022E0FC0146
:10150000208387E490E02C8DFC01208317C081E0CC
:101510008093090180EB90E020EB30E0F90120811D
:101520002260FC01208380E790E022E0FC01208320
:1015300083EB90E02C8DFC012083000081E0E1969C
:101540000FB6F894DEBF0FBECDBFDF91CF911F91D4
:101550000F91FF90EF90DF90CF90BF90AF909F9052
:101560008F907F906F905F904F903F902F90089555
:10157000DB018F939F930E94C80ABF91AF91A29FF6
:10158000800D911DA39F900DB29F900D1124089581
:101590000E94C70BA59F900DB49F900DA49F800D36
:1015A000911D11240895DF93CF931F930F939A9D5C
:1015B000F02D219FF00D8B9DF00D8A9DE02DF10DFA
:1015C000039FF00D029FE00DF11D4E9DE00DF11DFA
:1015D0005E9DF00D4F9DF00D7F936F93BF92AF9284
:1015E0005F934F93D5010E94C70B8B01AC01D701CC
:1015F0000E94C70BEB01E80FF91FD6010E94230BD5
:101600002F913F91D6010E94C70BC60FD71FE81F2D
:10161000F91FAF91BF910E94230B2F913F910E9420
:10162000C70BC60FD71FE81FF91FD6010E94C70BB3
:10163000E60FF71F9801BE01CF0111240F911F91F2
:10164000CF91DF9108950E94C70B460F571FC81F07
:10165000D91F08F431960895689401C0E8948F92D8
:101660009F92CF93DF930E943A0BDF91CF919F908F
:101670008F90089588249924F401E401B0E49F93A5
:10168000AA279A158B049C04ED05FE05CF05D0070B
:10169000A10798F4AD2FDC2FCF2FFE2FE92D982C2A
:1016A000892E982F872F762F652F542F432F322F77
:1016B0002227B85031F7BF9127C01B2EBF91BB27FF
:1016C000220F331F441F551F661F771F881F991F46
:1016D000881C991CEE1FFF1FCC1FDD1FAA1FBB1FFC
:1016E0008A149B04EC05FD05CE05DF05A007B107B4
:1016F00048F08A189B08EC09FD09CE09DF09A00B08
:10170000B10B21601A94E1F62EF49401AF01BE01F1
:10171000CD01000C089597FB10F8169400080F9364
:10172000083098F00850232F342F452F562F672F5D
:10173000782F892F902DF4CF0594979587957795DD
:10174000679557954795379527950A95AAF70F916D
:1017500008952A0D3B1D4C1D5D1D6E1D7F1D801FB4
:10176000911F08950024A7FD00942A0F301D401DED
:10177000501D601D701D801D901D08952A153B058C
:101780004C055D056E057F05800791070895A29FB2
:10179000B001B39FC001A39F700D811D1124911D45
:1017A000B29F700D811D1124911D08950F931F93F9
:1017B000CF93DF938230910510F482E090E0E091C6
:1017C0005301F091540120E030E0A0E0B0E0309708
:1017D00019F1408151810281138148175907C8F0DE
:1017E0008417950769F4109731F012960C931297AD
:1017F00013961C9327C0009353011093540122C0E9
:101800002115310519F04217530718F49A01BD014B
:10181000EF01DF01F801DBCF21153105F9F0281BBD
:10182000390B2430310580F48A819B816115710563
:1018300021F0FB019383828304C090935401809331
:101840005301FE01329644C0FE01E20FF31F819363
:10185000919322503109398328833AC02091510154
:1018600030915201232B41F4209102013091030168
:1018700030935201209351012091000130910101D8
:101880002115310541F42DB73EB740910401509127
:101890000501241B350BE0915101F0915201E21733
:1018A000F307A0F42E1B3F0B2817390778F0AC0183
:1018B0004E5F5F4F2417350748F04E0F5F1F509360
:1018C0005201409351018193919302C0E0E0F0E016
:1018D000CF01DF91CF911F910F910895CF93DF93A7
:1018E000009709F481C0FC01329713821282A09103
:1018F0005301B0915401109781F420813181820FFE
:10190000931F20915101309152012817390751F549
:10191000F0935201E093510167C0ED0120E030E007
:10192000CE17DF0740F44A815B819E0141155105C6
:10193000F1F0EA01F5CFD383C28340815181840F56
:10194000951FC817D90759F488819981840F951F6D
:101950000296918380838A819B8193838283211560
:10196000310529F4F0935401E09353013DC0E9019E
:10197000FB83EA8349915991C40FD51FEC17FD07EA
:1019800061F480819181840F951F0296E90199830A
:101990008883828193819B838A83E0E0F0E01296C2
:1019A0008D919C911397009719F0FD01DC01F7CF01
:1019B0008D919C9111979D012E5F3F4F820F931F38
:1019C00020915101309152012817390769F430975D
:1019D00029F4109254011092530102C01382128212
:1019E000B0935201A0935101DF91CF910895A0E0EF
:1019F000B0E0EDEFFCE00C94CA0DEC01009721F48F
:101A0000CB010E94D60BB4C0FC01E60FF71F9C016E
:101A100022503109E217F30708F4A8C0D9010D914B
:101A20001C91119706171707B0F00530110508F43F
:101A30009BC0C80104978617970708F495C0025009
:101A40001109061B170B019311936D937C93CF0122
:101A50000E946E0C89C05B01A01AB10A4C01800E75
:101A6000911EA0915301B0915401612C712CE12C75
:101A7000F12C109709F446C08D919C911197A815EF
:101A8000B905B1F56C0142E0C40ED11CCA14DB04E7
:101A900078F14C018A189B08640142E0C40ED11C05
:101AA0001296BC9012971396AC91B5E0CB16D10468
:101AB00040F0B282A38391828082D9016D937C939E
:101AC00009C00E5F1F4F800F911FF9019183808322
:101AD000EB2DFA2FE114F10431F0D7011396FC93AA
:101AE000EE93129741C0F0935401E09353013CC030
:101AF0006816790608F43C017D0112960D90BC91A0
:101B0000A02DB7CF8091510190915201881699066E
:101B1000E1F466167706C8F4809100019091010106
:101B2000009741F48DB79EB7409104015091050193
:101B3000841B950BE817F907C8F4F0935201E09362
:101B40005101F901718360830FC0CB010E94D60B54
:101B50007C01009759F0A801BE010E94BD0DCE0185
:101B60000E946E0CC70104C0CE0102C080E090E06C
:101B7000CDB7DEB7EEE00C94E60DFB01DC0102C050
:101B800001900D9241505040D8F708952F923F9206
:101B90004F925F926F927F928F929F92AF92BF927D
:101BA000CF92DF92EF92FF920F931F93CF93DF9329
:101BB000CDB7DEB7CA1BDB0B0FB6F894DEBF0FBE86
:101BC000CDBF09942A88398848885F846E847D84D3
:101BD0008C849B84AA84B984C884DF80EE80FD80D5
:101BE0000C811B81AA81B981CE0FD11D0FB6F8944B
:0E1BF000DEBF0FBECDBFED010895F894FFCF0C
:101BFE000000550120000102020201000800400011
:101C0E00000100040024F40040420F00E80301002C
:00000001FF
