S0270000537570657243617042696B652D4669726D776172652D41544D4547413332382E737265637C
S11300000C943D000C943E030C945A000C945A003A
S11300100C945A000C945A000C945A000C94EA095B
S11300200C945A000C945A000C945A000C94C50A6F
S11300300C945A000C945A000C944F090C945A00D6
S11300400C945A000C945A000C945A000C945A00C4
S11300500C945A000C945A000C9489000C945A0085
S11300600C9429010C945A00590177019C01C00198
S1130070EA010D024E025C02580211241FBECFEFAA
S1130080D8E0DEBFCDBF11E0A0E0B1E0E6E9FDE2DB
S113009002C005900D92AC34B107D9F721E0ACE46D
S11300A0B1E001C01D92A73AB207E1F70E94D8025D
S11300B00C94C9160C9400002F913F918FEF9FEF81
S11300C008952CEF29232030B9F708952FB321FD8B
S11300D0FDCF089530914F01303071F3F999ECCF91
S11300E027B720FDE9CFEDCFF5DF92BD81BDF894B0
S11300F0F89A60B57894862F90E00895EBDF92BD6E
S113010081BD60BDF894FA9AF99A7894DFDF91E0A2
S113011008951F920F9200905F000F9211248F9305
S1130120CF93DF93CDB7DEB781E080934C0100001D
S1130130DF91CF918F910F9000925F000F901F90ED
S11301401895CF93DF9300D000D000D0CDB7DEB7A1
S11301509E838D8387E089832EC0000080914C01AB
S11301608823E1F38981082E000C990B2D813E81AF
S1130170820F931FFC018081882309F18981082E55
S1130180000C990B2D813E81820F931FFC0120816D
S113019080914D0190914E01622F0E947E008091CA
S11301A04D0190914E01019690934E0180934D0123
S11301B0898181508983898188237CF601C000006C
S11301C08D819E8108969C838B8387E08A8322C0DD
S11301D0000080914C018823E1F38A81082E000CF1
S11301E0990B2B813C81820F931FFC01208180910C
S11301F04D0190914E01622F0E947E0080914D012D
S113020090914E01019690934E0180934D018A8105
S113021081508A838A818823DCF680919D019091A4
S11302209E012FEE40E060E20E942C0880919D0127
S113023090919E0120E144E160E20E942C080000BC
S113024026960FB6F894DEBF0FBECDBFDF91CF91D7
S113025008951F920F9200905F000F9211242F9324
S11302603F934F935F936F937F938F939F93AF933A
S1130270BF93EF93FF93CF93DF931F92CDB7DEB776
S113028085E8898380910601882F90E0092E000C6F
S1130290AA0BBB0B40E050E028E030E0841B950B38
S11302A02817390708F40BC18C5C9F4FFC010C9490
S11302B07A1389EB90E0FC018081882F90E0887F9D
S11302C09927889771F481E08093060100008CEBF4
S11302D090E029812062FC01208381E08093070162
S11302E0EEC086E08093060110920701E8C089EB16
S11302F090E0FC018081882F90E0887F99274097C7
S1130300A9F485E08093060100008BEB90E0209136
S11303105001220F2F5FFC0120838CEB90E0298198
S1130320FC01208381E080930701C9C086E08093AB
S1130330060110920701C3C089EB90E0FC018081A3
S1130340882F90E0887F99270897A1F483E0809311
S1130350060100008BEB90E020915001220FFC017C
S113036020838CEB90E02981FC01208381E0809341
S11303700701A5C086E080930601109207019FC083
S113038089EB90E0FC018081882F90E0887F992799
S1130390489759F480915201882319F41092060168
S11303A00AC084E08093060106C086E080930601BB
S11303B01092070184C08BEB90E020915101FC0165
S11303C020838CEB90E02981FC01208381E08093E1
S11303D0070175C089EB90E0FC018081882F90E0D3
S11303E0887F9927889799F486E080930601000016
S11303F08BEB90E020915301FC0120838CEB90E087
S11304002981FC01208381E08093070158C086E0A4
S1130410809306011092070152C089EB90E0FC0121
S11304208081882F90E0887F99278034910521F07E
S11304308835910551F02CC08CEB90E02981FC01AA
S1130440208381E0809307013AC080915401909108
S113045055012BEB30E0F9012081FC01208381E080
S1130460809307018091560190915701892B31F0B7
S11304708091560190915701FC0109958CEB90E015
S113048029812061FC01208388E08093060117C044
S113049086E0809306011092070111C08CEB90E076
S11304A029812061FC01208388E08093060107C034
S11304B081E08093070103C01092070100000F90B0
S11304C0DF91CF91FF91EF91BF91AF919F918F9168
S11304D07F916F915F914F913F912F910F90009277
S11304E05F000F901F901895CF93DF93CDB7DEB7C1
S11304F089EB90E0FC01108288EB90E027E2FC019C
S1130500208382E0809306018CEB90E025EAFC01D5
S113051020830000DF91CF910895CF93DF9300D023
S11305201F92CDB7DEB789836A834B838981809319
S113053050018A81809351018B818093530181E022
S1130540809352010E94740281E00F900F900F90EB
S1130550DF91CF910895CF93DF9300D000D000D0E6
S1130560CDB7DEB789836A835C834B833E832D8357
S11305708981809350018A81809351018B819C8170
S113058090935501809354018D819E8190935701DE
S113059080935601109252010E94740281E02696C3
S11305A00FB6F894DEBF0FBECDBFDF91CF91089593
S11305B0CF93DF93CDB7DEB7A4970FB6F894DEBF21
S11305C00FBECDBF78940E94D7048983898181307E
S11305D019F481E090E049C085E590E025E530E03C
S11305E0F90120812061FC01208382E0282F48EE5C
S11305F053E060E070E081E090E00E94C40C8A83E4
S11306008A81882369F480E1EDE0F1E0DE0155960A
S113061001900D928A95E1F7CE0145960E94A100C2
S1130620CE0105969C838B8381E080935A018B8154
S11306309C8149E169E170E00E94B60580915A010C
S11306408823E1F3809158018531C0F78B819C8127
S11306500E949306882391F780910601883071F7F0
S11306608B819C810E949B08E9CFA4960FB6F894D5
S1130670DEBF0FBECDBFDF91CF9108951F920F92C1
S113068000905F000F9211242F933F934F935F9339
S11306906F937F938F939F93AF93BF93EF93FF9346
S11306A0CF93DF93CDB7DEB780910601883059F43C
S11306B02AE733E049E551E061E180E20E94AB02C0
S11306C080939F0102C010929F010000DF91CF919F
S11306D0FF91EF91BF91AF919F918F917F916F9116
S11306E05F914F913F912F910F9000925F000F9077
S11306F01F901895CF93DF93CDB7DEB763970FB6EE
S1130700F894DEBF0FBECDBF80910801882309F4A1
S113071042C180919F01882359F586E0EDE1F1E023
S1130720DE01149601900D928A95E1F71B861A86D4
S113073080913301282F30E040E050E060E070E029
S1130740CB012C873D874E875F87688B798B8A8B9B
S11307509B8BCE0104960E94A10089E690E029E6D5
S113076030E0F90120812D7FFC01208310920801E3
S113077080915901869586958695877089838981AC
S1130780873009F40AC18981882309F406C1898163
S1130790282F30E0C901880F991F820F931F8C5CAA
S11307A09E4F9B838A838BE290E02BE230E0F90139
S11307B020812C7EFC0120838AE290E02AE230E052
S11307C0F90120812F79FC01208384E290E024E266
S11307D030E0F90120812D7FFC0120838A819B81F7
S11307E0FC018081882F90E082309105A9F083304C
S11307F0910509F1019709F0D1C061E081EA91E026
S11308000E9410118BE290E02BE230E0F90120818C
S11308102064FC0120831EC061E081EA91E00E9413
S113082010118BE290E02BE230E0F901208120628C
S1130830FC0120830FC061E081EA91E00E94101165
S113084085E290E025E230E0F90120812260FC019C
S1130850208300008A819B81FC018181882F90E0A4
S113086082309105F1F08330910599F1019709F0F7
S113087095C060E081EA91E00E9410118AE290E064
S11308802AE230E0F90120812F7BFC0120838BE2F6
S113089090E02BE230E0F90120812064FC01208308
S11308A030C060E080EA91E00E9410118AE290E09A
S11308B02AE230E0F90120812F7DFC0120838BE2C4
S11308C090E02BE230E0F90120812062FC012083DA
S11308D018C060E082EA91E00E94101184E290E086
S11308E024E230E0F90120812D7FFC01208385E2A0
S11308F090E025E230E0F90120812260FC012083B0
S113090000008A819B81FC018281882F90E08230E3
S11309109105C9F08330910549F1019709F03EC072
S11309208BE290E02BE230E0F90120812E7FFC0184
S113093020838BE290E02BE230E0F90120812261F8
S1130940FC01208326C08BE290E02BE230E0F90129
S113095020812F7EFC0120838BE290E02BE230E0AB
S1130960F90120812360FC01208313C08BE290E015
S11309702BE230E0F90120812D7FFC0120838BE202
S113098090E02BE230E0F90120812161FC01208319
S11309900000000003C0000001C0000063960FB611
S11309A0F894DEBF0FBECDBFDF91CF910895CF93F2
S11309B0DF93CDB7DEB727970FB6F894DEBF0FBE2F
S11309C0CDBF84E290E024E230E0F901208122618D
S11309D0FC0120838AE290E02AE230E0F9012081E0
S11309E0236FFC0120838BE290E02BE230E0F901DD
S11309F020812C7EFC0120838AE290E02AE230E010
S1130A00F90120812F79FC01208384E290E024E223
S1130A1030E0F90120812D7FFC0120834FEF61E05C
S1130A2080E20E948D020000809106018830E1F787
S1130A3042E06BE080E20E948D020000809106019A
S1130A408830E1F744E06BE080E20E948D02000010
S1130A50809106018830E1F742E067E080E20E947D
S1130A608D020000809106018830E1F742E069E0E0
S1130A7080E20E948D020000809106018830E1F737
S1130A80CE01079620E030E0AC0161E180E20E94F3
S1130A90AB020000809106018830E1F748E365E08D
S1130AA080E20E948D020000809106018830E1F707
S1130AB083E08093A10160E081EA91E00E9410113B
S1130AC089834AE061E070E081EA91E00E947D124E
S1130AD08A838981882319F08A81882311F481E02B
S1130AE03CC082E08093A00160E080EA91E00E9433
S1130AF010118B834AE061E070E080EA91E00E948B
S1130B007D128C838B81882319F08C81882311F4C6
S1130B1081E023C01092A20160E082EA91E00E9489
S1130B2010118D834AE061E070E082EA91E00E9456
S1130B307D128E838D81882319F08E81882311F490
S1130B4081E00BC0789489E690E029E630E0F90171
S1130B5020812260FC01208380E027960FB6F89460
S1130B60DEBF0FBECDBFDF91CF910895CF93DF934A
S1130B70CDB7DEB727970FB6F894DEBF0FBECDBF53
S1130B809C838B837E836D834F838D819E81892B90
S1130B9019F08F81882311F480E051C08D819E81EA
S1130BA0992314F480E04BC02D813E81C901880F44
S1130BB0991F820F931F0E94A2149A8389838981AB
S1130BC09A81892B11F480E03AC08B819C81298120
S1130BD03A81FC01318320838B819C81FC01138247
S1130BE012828B819C81FC01158214822D813E81AD
S1130BF0C901880F991F280F391F8B819C81FC0123
S1130C00378326839F81892F880F282F290F8B8173
S1130C109C81FC0120878B819C81FC0112861186BA
S1130C208B819C81FC01148613868B819C81FC0141
S1130C30168615868B819C81FC01178681E0279698
S1130C400FB6F894DEBF0FBECDBFDF91CF910895EC
S1130C50CF93DF93CDB7DEB727970FB6F894DEBFF7
S1130C600FBECDBF9F838E838E819F81892B11F40C
S1130C7080E050C08E819F81FC01868197819A8398
S1130C8089838E819F81FC0180858B8389819A81F0
S1130C909C0140E050E08B81882F90E0A0E0B0E020
S1130CA0820F931FA41FB51F0097A140B10528F41C
S1130CB089819A818115984010F080E02BC08B8146
S1130CC0282F30E089819A81280F391F8E819F81D6
S1130CD0FC0180819181B9010E94C3159D838C839D
S1130CE08C819D81892B11F480E014C08E819F81B9
S1130CF02C813D81FC01318320838B81282F30E0BE
S1130D0089819A81280F391F8E819F81FC01378345
S1130D10268381E027960FB6F894DEBF0FBECDBFC1
S1130D20DF91CF910895CF93DF9300D0CDB7DEB795
S1130D309A83898389819A81FC018785882379F440
S1130D4089819A81FC012281338189819A81FC0104
S1130D50848195812817390711F481E001C080E06E
S1130D600F900F90DF91CF910895CF93DF93CDB77C
S1130D70DEB72A970FB6F894DEBF0FBECDBF9887B3
S1130D808F837A8769878F819885FC018481958117
S1130D909A8389838F819885FC01828193819C83C6
S1130DA08B838F819885FC01868197819E838D83B7
S1130DB029813A818D819E812817390751F48F81C9
S1130DC09885FC01158214828F81988521E0FC01AD
S1130DD027878F819885FC0187858130E1F52B81F8
S1130DE03C8189819A8128173907A9F58F819885D3
S1130DF00E942806813069F58F81988522E0FC01E4
S1130E0027878F81988529813A81FC013687258738
S1130E108F8198852D813E81FC01328721878F81C6
S1130E2098852D813E81FC01348723878F819885A5
S1130E30FC01268137818F819885FC018085882F6C
S1130E4090E0281B390B8F819885FC01358324831E
S1130E5002C080E02AC08F819885FC0140815181C5
S1130E608F819885FC0124813581C901880F991FE0
S1130E70820F931F9A01280F391F89859A85FC01D7
S1130E8080819181A281F90180839183A2838F81E2
S1130E909885FC01848195819C012F5F3F4F8F8150
S1130EA09885FC013583248381E02A960FB6F89453
S1130EB0DEBF0FBECDBFDF91CF910895CF93DF93F7
S1130EC000D000D000D0CDB7DEB79C838B837E8367
S1130ED06D838B819C81FC01828193819A838983B8
S1130EE08B819C810E949306813011F482E0ABC017
S1130EF08B819C81FC01408151818B819C81FC010F
S1130F0022813381C901880F991F820F931F840F97
S1130F10951F2D813E81FC0180819181A281F9017F
S1130F2080839183A2838B819C81FC018785882F98
S1130F3090E081309105A1F08230910591F1892BE7
S1130F4009F06DC08B819C81FC01828193819C019D
S1130F502F5F3F4F8B819C81FC013383228361C0CF
S1130F608B819C81FC01868197819C0121503109F0
S1130F7089819A812817390731F48B819C81FC017E
S1130F80138212824EC08B819C81FC0182819381E9
S1130F909C012F5F3F4F8B819C81FC013383228313
S1130FA040C08B819C81FC01818592859C012150EC
S1130FB0310989819A812817390731F48B819C8101
S1130FC0FC01138212822DC08B819C81FC018585DA
S1130FD096859C012150310989819A812817390706
S1130FE081F48B819C81FC01238534858B819C81D8
S1130FF0FC01338322838B819C8121E0FC012787C0
S113100010C08B819C81FC01828193819C012F5FA4
S11310103F4F8B819C81FC013383228302C080E09B
S113102012C08B819C81FC01228133818B819C8144
S1131030FC01848195812817390721F48B819C81D7
S1131040FC01178681E026960FB6F894DEBF0FBE2A
S1131050CDBFDF91CF910895CF93DF93CDB7DEB7A6
S11310602C970FB6F894DEBF0FBECDBF9987888743
S11310706A874B872C87888599850E9493068823E5
S113108059F080910601883039F44C856B858A8546
S11310900E948D0281E046C01D821E821F8281E073
S11310A08D8381E08E839E012B5F3F4F88859985D8
S11310B0B9010E94B50689838981882311F480E0EF
S11310C031C08A858E839E012B5F3F4F8885998529
S11310D0B9010E94B5068A838A81882311F480E0CD
S11310E021C08B858E839E012B5F3F4F8885998518
S11310F0B9010E94B5068B838B81882311F480E0AB
S113110011C08C858E839E012B5F3F4F8885998506
S1131110B9010E94B5068C838C81882311F480E088
S113112001C081E02C960FB6F894DEBF0FBECDBF90
S1131130DF91CF910895CF93DF93CDB7DEB7299791
S11311400FB6F894DEBF0FBECDBF99878887888518
S113115099850E949306813011F482E097C08885B6
S11311609985892B11F480E091C09E012B5F3F4F3C
S113117088859985B9010E945E07898389818823BE
S113118019F08981823011F480E080C08D81882338
S113119011F480E07BC08E81813029F08E81882318
S11311A011F080E073C08E818A839E012B5F3F4FD4
S11311B088859985B9010E945E078983898188237E
S11311C019F08981823011F480E060C08D81882318
S11311D011F480E05BC08E818B839E012B5F3F4FB7
S11311E088859985B9010E945E078983898188234E
S11311F019F08981823011F480E048C08D81882300
S113120011F480E043C08E818C838A81882309F5A0
S11312109E012B5F3F4F88859985B9010E945E0727
S113122089838981882319F08981823011F480E0CF
S11312302DC08D81813011F480E028C08E819F8182
S113124020E030E0AC016C818B810E94AB0281E034
S11312501DC09E012B5F3F4F88859985B9010E946F
S11312605E0789838981882319F08981823011F48A
S113127080E00CC08D81882311F480E007C08E814A
S1131280482F6C818B810E948D0281E029960FB6D4
S1131290F894DEBF0FBECDBFDF91CF9108951F92AA
S11312A00F9200905F000F921124EF92FF920F9320
S11312B01F932F933F934F935F938F939F93AF937A
S11312C0BF93EF93FF93CF93DF931F92CDB7DEB716
S11312D08091830190918401A0918501B091860150
S11312E0892B8A2B8B2B19F58091770190917801AA
S11312F0A0917901B0917A01892B8A2B8B2B09F467
S113130051C08091770190917801A0917901B091B9
S11313107A018093830190938401A0938501B09313
S1131320860187E490E02FEFFC0120833BC080918D
S1131330830190918401A0918501B09186018F3F32
S11313409105A105B10509F048F4809183019091BC
S11313508401A0918501B091860101C08FEF89833A
S113136087E490E02981FC0120832091830130915E
S1131370840140918501509186018981882F90E0F4
S1131380A0E0B0E079018A01E81AF90A0A0B1B0B04
S1131390D801C7018093830190938401A0938501B0
S11313A0B093860100000F90DF91CF91FF91EF91F0
S11313B0BF91AF919F918F915F914F913F912F91E9
S11313C01F910F91FF90EF900F9000925F000F908C
S11313D01F9018951F920F9200905F000F92112496
S11313E0AF92BF92CF92DF92EF92FF920F931F932F
S11313F02F933F934F935F936F937F938F939F9319
S1131400AF93BF93EF93FF93CF93DF931F92CDB727
S1131410DEB78091870190918801A0918901B091F4
S11314208A01892B8A2B8B2B09F056C0A0906B0163
S1131430B0906C01C0906D01D0906E01E0906F018E
S1131440F090700100917101109172012A2D3B2DD1
S11314504C2D5D2D6E2D7F2D802F912FA1E00E94AC
S11314606A14A22EB32EC42ED52EE62EF72E082FE4
S1131470192FA0926B01B0926C01C0926D01D092B1
S11314806E01E0926F01F09270010093710110936C
S1131490720180917B0190917C01A0917D01B091BA
S11314A07E01892B8A2B8B2B09F451C080917B01FF
S11314B090917C01A0917D01B0917E018093870180
S11314C090938801A0938901B0938A0183EB90E003
S11314D02FEFFC0120833BC080918701909188010C
S11314E0A0918901B0918A018F3F9105A105B105B1
S11314F009F048F48091870190918801A0918901B5
S1131500B0918A0101C08FEF898383EB90E0298138
S1131510FC01208320918701309188014091890149
S113152050918A018981882F90E0A0E0B0E0790190
S11315308A01E81AF90A0A0B1B0BD801C701809328
S1131540870190938801A0938901B0938A010000D8
S11315500F90DF91CF91FF91EF91BF91AF919F9148
S11315608F917F916F915F914F913F912F911F9137
S11315700F91FF90EF90DF90CF90BF90AF900F90BE
S113158000925F000F901F9018951F920F92009089
S11315905F000F921124AF92BF92CF92DF92EF922D
S11315A0FF920F931F932F933F934F935F936F93E8
S11315B07F938F939F93AF93BF93EF93FF93CF93B7
S11315C0DF9300D0CDB7DEB780917F019091800189
S11315D0A0918101B0918201892B8A2B8B2B09F078
S11315E05BC0A0905B01B0905C01C0905D01D090A5
S11315F05E01E0905F01F090600100916101109143
S113160062012A2D3B2D4C2D5D2D6E2D7F2D802FBB
S1131610912FA1E00E946A14A22EB32EC42ED52EBF
S1131620E62EF72E082F192FA0925B01B0925C01D1
S1131630C0925D01D0925E01E0925F01F092600180
S11316400093610110936201809173019091740180
S1131650A0917501B0917601892B8A2B8B2B09F40B
S113166058C08091730190917401A0917501B0915B
S1131670760180937F0190938001A0938101B093C0
S1131680820189E890E02FEFFC01208388E890E054
S11316902FEFFC0120833DC080917F019091800158
S11316A0A0918101B09182010097A140B10548F455
S11316B080917F0190918001A0918101B09182017C
S11316C002C08FEF9FEF9A83898388E890E0298195
S11316D03A81FC013183208320917F013091800184
S11316E0409181015091820189819A81CC01A0E0CD
S11316F0B0E079018A01E81AF90A0A0B1B0BD80138
S1131700C70180937F0190938001A0938101B093DE
S1131710820100000F900F90DF91CF91FF91EF9124
S1131720BF91AF919F918F917F916F915F914F91F5
S11317303F912F911F910F91FF90EF90DF90CF90E9
S1131740BF90AF900F9000925F000F901F9018957C
S1131750CF93DF9300D01F92CDB7DEB789837B830D
S11317606A838981882F90E08130910509F45BC0F8
S11317708230910509F4ABC0892B09F0FCC081E8E3
S113178090E021E830E0F9012081287FFC012083EA
S11317908A819B818034910529F18134910530F44B
S11317A08130910559F0089799F03AC08115F1E01C
S11317B09F0711F18115944049F132C081E890E00E
S11317C021E830E0F90120812160FC0120832AC056
S11317D081E890E021E830E0F90120812260FC01F9
S11317E0208320C081E890E021E830E0F9012081E5
S11317F02360FC01208316C081E890E021E830E0FA
S1131800F90120812460FC0120830CC081E890E070
S113181021E830E0F90120812560FC01208302C029
S113182080E0ACC0AAC085E490E025E430E0F90192
S11318302081287FFC0120838A819B81803491054B
S113184029F18134910530F48130910559F00897DC
S113185099F03AC08115F1E09F0711F18115944088
S113186049F132C085E490E025E430E0F9012081BB
S11318702160FC0120832AC085E490E025E430E067
S1131880F90120812260FC01208320C085E490E0DE
S113189025E430E0F90120812360FC01208316C097
S11318A085E490E025E430E0F90120812460FC0126
S11318B020830CC085E490E025E430E0F901208128
S11318C02560FC01208302C080E058C056C081EB33
S11318D090E021EB30E0F9012081287FFC01208396
S11318E08A819B818034910529F18134910530F4FA
S11318F08130910559F0089799F03AC08115F1E0CB
S11319009F0711F18115944049F132C081EB90E0B9
S113191021EB30E0F90120812160FC0120832AC001
S113192081EB90E021EB30E0F90120812260FC01A1
S1131930208320C081EB90E021EB30E0F90120818D
S11319402460FC01208316C081EB90E021EB30E0A1
S1131950F90120812660FC0120830CC081EB90E01A
S113196021EB30E0F90120812760FC01208302C0D3
S113197080E004C002C080E001C081E00F900F90BD
S11319800F90DF91CF9108952F923F924F925F92E3
S11319906F927F928F929F92AF92BF92CF92DF927B
S11319A0EF92FF920F931F93CF93DF93CDB7DEB7E0
S11319B0E1970FB6F894DEBF0FBECDBF9CA78BA7EF
S11319C04DA75EA76FA778AB29AB80912F019091AB
S11319D03001A0913101B0913201892B8A2B8B2BDC
S11319E011F480E0CFC38DA59EA5AFA5B8A9892B1E
S11319F08A2B8B2B11F480E0C5C380912F01909129
S1131A003001A0913101B09132011C012D01612CF2
S1131A10712C43018BA59CA59C0140E050E060E043
S1131A2070E0CB01A22EB32EC42ED52EE62EF72EB7
S1131A30082F192F222D332D442D552D662D772D4A
S1131A40882D992D0E948B13A22EB32EC42ED52E31
S1131A50E62EF72E082F192F2A2C3B2C4C2C5D2C0C
S1131A606E2C7F2C802E912E8DA59EA5AFA5B8A996
S1131A709C01AD0160E070E0CB01A22EB32EC42E18
S1131A80D52EE62EF72E082F192F222D332D442D77
S1131A90552D662D772D882D992D0E94E613222E23
S1131AA0332E442E552E662E772E882E992EA22C58
S1131AB0B32CC42CD52CE62CF72C082D192D86E933
S1131AC0282E312C412C512C612C712C43012A2DB0
S1131AD03B2D4C2D5D2D6E2D7F2D802F912FA22C13
S1131AE0B32CC42CD52CE62CF72C082D192D0E94D0
S1131AF0761409F010F480E045C38BA59CA59C01E5
S1131B0040E050E080912F0190913001A09131018B
S1131B10B0913201BC01CD010E945613DC01CB010E
S1131B209C01AD0160E070E0CB01288739874A87CA
S1131B305B876C877D878E879F878DA59EA5AFA5C4
S1131B40B8A99C01AD0160E070E0CB01A22EB32ED8
S1131B50C42ED52EE62EF72E082F192F2885398569
S1131B604A855B856C857D858E859F850E94E613FD
S1131B70A22EB32EC42ED52EE62EF72E082F192F03
S1131B80A88AB98ACA8ADB8AEC8AFD8A0E8B1F8BE3
S1131B901A8219821B821C821D821E8289A9882FA7
S1131BA090E08130910509F451C08230910509F427
S1131BB096C0892B09F0DCC08FE690E02FE630E078
S1131BC0F90120812D7FFC012083288939894A89E4
S1131BD05B896C897D898E899F89225031094F4F99
S1131BE05F4F6F4F7F4F8F4F9F4F222E332E442EC8
S1131BF0552E662E772E882E992EAA24AA94BB24BD
S1131C00BA94C12CD12CE12CF12C00E010E0222D4F
S1131C10332D442D552D662D772D882D992D0E9419
S1131C20E613A22EB32EC42ED52EE62EF72E082FA1
S1131C30192F2A2D3B2D4C2D5D2D6E2D7F2D802FA0
S1131C40912F2B833C834D835E8394C08EE690E07A
S1131C502EE630E0F90120812D7FFC0120832889C4
S1131C6039894A895B896C897D898E899F8922504B
S1131C703F4F4F4F5F4F6F4F7F4F8F4F9F4F222EDE
S1131C80332E442E552E662E772E882E992EAA2476
S1131C90AA94B12CC12CD12CE12CF12C00E010E041
S1131CA0222D332D442D552D662D772D882D992DDC
S1131CB00E94E613A22EB32EC42ED52EE62EF72EA6
S1131CC0082F192F2A2D3B2D4C2D5D2D6E2D7F2D88
S1131CD0802F912F2B833C834D835E834BC080E701
S1131CE090E020E730E0F90120812D7FFC01208382
S1131CF0288939894A895B896C897D898E899F897C
S1131D0022503F4F4F4F5F4F6F4F7F4F8F4F9F4F2B
S1131D10222E332E442E552E662E772E882E992E63
S1131D20AA24AA94B12CC12CD12CE12CF12C00E0D2
S1131D3010E0222D332D442D552D662D772D882D21
S1131D40992D0E94E613A22EB32EC42ED52EE62E74
S1131D50F72E082F192F2A2D3B2D4C2D5D2D6E2D7E
S1131D607F2D802F912F2B833C834D835E8302C074
S1131D7080E008C28B819C81AD81BE81813094401A
S1131D80A105B10508F490C080E094E09A838983AA
S1131D9089A9E82FF0E0288939894A895B896C8907
S1131DA07D898E899F890AE00E944514A22EB32E54
S1131DB0C42ED52EE62EF72E082F192FD601C501D5
S1131DC09F01220F331F220F331F2D583E4FF9015D
S1131DD080839183A283B38389A9282F30E089A9C2
S1131DE0882F90E0880F991F880F991F8D589E4F58
S1131DF0FC0180819181A281B381220F331F220FC4
S1131E00331F21583E4FF90180839183A283B3830A
S1131E1089A9882F90E081309105D9F0823091050D
S1131E2069F1892B09F086C181E890E02DE0FC017D
S1131E30208389E890E02FEFFC01208388E890E07C
S1131E402FEFFC0120838FE690E022E0FC01208349
S1131E5071C184E490E022E0FC01208385E490E0F9
S1131E6025E0FC0120838EE690E022E0FC01208343
S1131E7087E490E02FEFFC0120835CC180EB90E0CD
S1131E8022E0FC01208381EB90E027E0FC01208329
S1131E9080E790E022E0FC01208383EB90E02FEFC9
S1131EA0FC012083000046C189A9882F90E0880F97
S1131EB0991F880F991F8D589E4FFC011082118223
S1131EC0128213828AE0E5E2F1E0DE01919601904C
S1131ED00D928A95E1F71F822EC08F81882F90E0A2
S1131EE0880F991F9E012F5F3F4F820F931F80968B
S1131EF0FC01808191819C0140E050E08B819C81B8
S1131F00AD81BE81281739074A075B0788F08F81A6
S1131F10882F90E0880F991F9E012F5F3F4F820FFB
S1131F20931F8096FC01808191819A83898306C0E6
S1131F308F818F5F8F838F81853078F289819A8139
S1131F409C0140E050E08DA59EA5AFA5B8A9BC01B9
S1131F50CD010E945613DC01CB01888F998FAA8F83
S1131F60BB8F888D998DAA8DBB8D892B8A2B8B2B4A
S1131F7011F480E007C1888D998DAA8DBB8DB6952B
S1131F80A795979587955C016D01E12CF12C87014C
S1131F902A2D3B2D4C2D5D2D6E2D7F2D802F912FC5
S1131FA0A884B984CA84DB84EC84FD840E851F85EF
S1131FB00E946114222E332E442E552E662E772E27
S1131FC0882E992E888D998DAA8DBB8D9C01AD018B
S1131FD060E070E0CB01A22EB32EC42ED52EE62EE7
S1131FE0F72E082F192F222D332D442D552D662D14
S1131FF0772D882D992D0E94E613A22EB32EC42E80
S1132000D52EE62EF72E082F192F2A2D3B2D4C2DD9
S11320105D2D6E2D7F2D802F912F2C8F3D8F4E8F18
S11320205F8F8C8D9D8DAE8DBF8D892B8A2B8B2BD5
S113203011F480E0A7C089A9813019F089A9823000
S113204061F48C8D9D8DAE8DBF8D8F3F9105A10563
S1132050B10519F010F080E095C089A9882351F4E6
S11320608C8D9D8DAE8DBF8D0097A140B10510F074
S113207080E088C089819A81BC0189A90E94A80B4B
S113208088A388A1882311F480E07CC089A9882FC3
S113209090E08130910531F182309105B9F1892BBD
S11320A009F048C081E890E021E830E0F90120819E
S11320B02860FC01208329E830E08C8D9D8DAE8D55
S11320C0BF8D892F9A2FAB2FBB27F90180838FE611
S11320D090E022E0FC01208388E890E02C8DFC0154
S11320E0208328C084E490E024E430E0F9012081D6
S11320F02260FC0120838EE690E022E0FC01208334
S113210087E490E02C8DFC01208314C080EB90E0E8
S113211020EB30E0F90120812260FC01208380E77C
S113212090E022E0FC01208383EB90E02C8DFC0105
S11321302083000089A9882F90E0875F9E4F21E0CB
S1132140FC01208389A9882F90E0880F991F880FAC
S1132150991F9C0125573E4F8DA59EA5AFA5B8A9F3
S1132160F90180839183A283B38389A9882F90E0A6
S1132170880F991F89569E4F2BA53CA5FC013183DE
S1132180208381E0E1960FB6F894DEBF0FBECDBF89
S1132190DF91CF911F910F91FF90EF90DF90CF903F
S11321A0BF90AF909F908F907F906F905F904F9073
S11321B03F902F900895CF93DF93CDB7DEB78091F2
S11321C00C01882F90E08130910579F082309105DF
S11321D0A9F0892B09F020C0809109018130B9F45C
S11321E08FE690E0FC01108212C080910A018130D8
S11321F081F48EE690E0FC0110820BC080910B010B
S1132200813049F480E790E0FC01108204C00000B2
S113221003C0000001C000000000DF91CF910895C9
S1132220CF93DF9300D01F92CDB7DEB79A83898313
S11322306B8389819A81FC018081882F90E08230B0
S1132240910509F47DC08330910534F4009781F041
S1132250019709F441C024C18430910509F4C8C030
S1132260843091050CF498C0059709F4EDC018C1A9
S113227010920C018B81882F90E0009701F1019757
S113228041F50E94DB1080E890E020E830E0F9019D
S113229020812C73FC01208381E890E021E830E068
S11322A0F9012081277EFC01208380E890E020E86A
S11322B030E0F90120812168FC0120830CC080E812
S11322C090E020E830E0F90120812F77FC012083A1
S11322D002C080E00CC1E6C010920C018B81882FF3
S11322E090E0009701F1019741F50E94DB1080E82E
S11322F090E020E830E0F90120812C7CFC0120836F
S113230081E890E021E830E0F9012081277EFC019A
S1132310208380E890E020E830E0F9012081216208
S1132320FC0120830CC080E890E020E830E0F90153
S113233020812F7DFC01208302C080E0D8C0B2C080
S113234081E080930C018B81882F90E00097B9F095
S11323500197F9F40E94DB1084E490E024E430E077
S1132360F90120812C7CFC01208384E490E024E4A6
S113237030E0F90120812162FC0120830CC084E457
S113238090E024E430E0F90120812F7DFC012083DA
S113239002C080E0ACC086C081E080930C018B81D8
S11323A0882F90E00097B9F00197F9F40E94DB10B0
S11323B084E490E024E430E0F90120812C73FC01F2
S11323C0208384E490E024E430E0F9012081216852
S11323D0FC0120830CC084E490E024E430E0F901A3
S11323E020812F77FC01208302C080E080C05AC086
S11323F082E080930C018B81882F90E00097B9F0E4
S11324000197F9F40E94DB1080EB90E020EB30E0C0
S1132410F90120812C73FC01208380EB90E020EBF8
S113242030E0F90120812168FC0120830CC080EB9D
S113243090E020EB30E0F90120812F77FC0120832C
S113244002C080E054C02EC082E080930C018B81D6
S1132450882F90E00097B9F00197F9F40E94DB10FF
S113246080EB90E020EB30E0F90120812C7CFC0132
S1132470208380EB90E020EB30E0F90120812162A1
S1132480FC0120830CC080EB90E020EB30E0F901EC
S113249020812F7DFC01208302C080E028C002C07F
S11324A080E025C08B81813049F480910C01882F14
S11324B090E0875F9E4FFC01108209C080910C015F
S11324C0882F90E0875F9E4F22E0FC01208380915B
S11324D00C01882F90E0880F991F880F991F85574A
S11324E09E4FFC01108211821282138281E00F90B0
S11324F00F900F90DF91CF910895CF93DF9300D089
S113250000D000D0CDB7DEB79B838A837D836C83F4
S11325104E838E81853610F080E0BFC08A819B8116
S1132520FC018081882F90E08230910509F444C039
S1132530833091052CF4009779F0019729F19CC020
S11325408430910509F468C0843091050CF44CC0C2
S1132550059709F479C090C028E830E08E81482FAF
S113256050E06FEF649FC001659F900D1124C296E7
S113257044E650E0BA010E946613CB01F90191834D
S1132580808310920C017AC02AE830E08E81482FB3
S113259050E06FEF649FC001659F900D1124C296B7
S11325A044E650E0BA010E946613CB01F90191831D
S11325B0808310920C0162C028E430E08E81482FA1
S11325C050E06FEF649FC001659F900D1124C29687
S11325D044E650E0BA010E946613CB01F9018083FE
S11325E081E080930C014AC027E430E08E81482FBB
S11325F050E06FEF649FC001659F900D1124C29657
S113260044E650E0BA010E946613CB01F9018083CD
S113261081E080930C0132C023EB30E08E81482F9F
S113262050E06FEF649FC001659F900D1124C29626
S113263044E650E0BA010E946613CB01F90180839D
S113264082E080930C011AC024EB30E08E81482F85
S113265050E06FEF649FC001659F900D1124C296F6
S113266044E650E0BA010E946613CB01F90180836D
S113267082E080930C0102C080E00FC020910C0125
S11326808C819D81BC01822F0E94A80B8983898142
S1132690882311F480E001C081E026960FB6F894F7
S11326A0DEBF0FBECDBFDF91CF910895DB018F93C5
S11326B09F930E948013BF91AF91A29F800D911DA3
S11326C0A39F900DB29F900D1124089597FB072EA0
S11326D016F4009407D077FD09D00E947F1407FCFC
S11326E005D03EF4909581959F4F0895709561951E
S11326F07F4F0895EE0FFF1F0590F491E02D09948C
S11327000E949314A59F900DB49F900DA49F800DDB
S1132710911D11240895DF93CF931F930F939A9DD6
S1132720F02D219FF00D8B9DF00D8A9DE02DF10D74
S1132730039FF00D029FE00DF11D4E9DE00DF11D74
S11327405E9DF00D4F9DF00D7F936F93BF92AF92FE
S11327505F934F93D5010E9493148B01AC01D70171
S11327600E949314EB01E80FF91FD6010E94DB13BA
S11327702F913F91D6010E949314C60FD71FE81FD3
S1132780F91FAF91BF910E94DB132F913F910E94DB
S11327909314C60FD71FE81FF91FD6010E94931484
S11327A0E60FF71F9801BE01CF0111240F911F916D
S11327B0CF91DF9108950E949314460F571FC81FAD
S11327C0D91F08F431960895689401C0E8948F9253
S11327D09F92CF93DF930E94F213DF91CF919F904A
S11327E08F90089588249924F401E401B0E49F9320
S11327F0AA279A158B049C04ED05FE05CF05D00786
S1132800A10798F4AD2FDC2FCF2FFE2FE92D982CA4
S1132810892E982F872F762F652F542F432F322FF1
S11328202227B85031F7BF9127C01B2EBF91BB2779
S1132830220F331F441F551F661F771F881F991FC0
S1132840881C991CEE1FFF1FCC1FDD1FAA1FBB1F76
S11328508A149B04EC05FD05CE05DF05A007B1072E
S113286048F08A189B08EC09FD09CE09DF09A00B82
S1132870B10B21601A94E1F62EF49401AF01BE016C
S1132880CD01000C089597FB10F8169400080F93DF
S1132890083098F00850232F342F452F562F672FD8
S11328A0782F892F902DF4CF059497958795779558
S11328B0679557954795379527950A95AAF70F91E8
S11328C008952A0D3B1D4C1D5D1D6E1D7F1D801F2F
S11328D0911F08950024A7FD00942A0F301D401D68
S11328E0501D601D701D801D901D08952A153B0507
S11328F04C055D056E057F05800791070895AA1BA9
S1132900BB1B51E107C0AA1FBB1FA617B70710F0D6
S1132910A61BB70B881F991F5A95A9F78095909508
S1132920BC01CD010895A29FB001B39FC001A39F34
S1132930700D811D1124911DB29F700D811D1124F4
S1132940911D08950F931F93CF93DF9382309105C8
S113295010F482E090E0E091A501F091A60120E05E
S113296030E0A0E0B0E0309719F14081518102815C
S1132970138148175907C8F08417950769F410970D
S113298031F012960C93129713961C9327C0009360
S1132990A5011093A60122C02115310519F0421793
S11329A0530718F49A01BD01EF01DF01F801DBCFF1
S11329B021153105F9F0281B390B2430310580F439
S11329C08A819B816115710521F0FB0193838283C8
S11329D004C09093A6018093A501FE01329644C0E1
S11329E0FE01E20FF31F8193919322503109398341
S11329F028833AC02091A3013091A401232B41F4F0
S1132A0020910201309103013093A4012093A3018A
S1132A1020910001309101012115310541F42DB7B8
S1132A203EB74091040150910501241B350BE09100
S1132A30A301F091A401E217F307A0F42E1B3F0BAE
S1132A402817390778F0AC014E5F5F4F241735071C
S1132A5048F04E0F5F1F5093A4014093A30181934C
S1132A60919302C0E0E0F0E0CF01DF91CF911F919C
S1132A700F910895CF93DF93009709F481C0FC016F
S1132A80329713821282A091A501B091A6011097EA
S1132A9081F420813181820F931F2091A301309111
S1132AA0A4012817390751F5F093A401E093A30179
S1132AB067C0ED0120E030E0CE17DF0740F44A8123
S1132AC05B819E0141155105F1F0EA01F5CFD383F5
S1132AD0C28340815181840F951FC817D90759F4C7
S1132AE088819981840F951F0296918380838A81BE
S1132AF09B81938382832115310529F4F093A601E8
S1132B00E093A5013DC0E901FB83EA834991599112
S1132B10C40FD51FEC17FD0761F480819181840FE8
S1132B20951F0296E90199838883828193819B830F
S1132B308A83E0E0F0E012968D919C9113970097C0
S1132B4019F0FD01DC01F7CF8D919C9111979D0146
S1132B502E5F3F4F820F931F2091A3013091A40158
S1132B602817390769F4309729F41092A6011092B6
S1132B70A50102C013821282B093A401A093A30101
S1132B80DF91CF910895A0E0B0E0E9ECF5E10C9479
S1132B909616EC01009721F4CB010E94A214B4C054
S1132BA0FC01E60FF71F9C0122503109E217F307DD
S1132BB008F4A8C0D9010D911C91119706171707A5
S1132BC0B0F00530110508F49BC0C80104978617BE
S1132BD0970708F495C002501109061B170B0193BF
S1132BE011936D937C93CF010E943A1589C05B01C8
S1132BF0A01AB10A4C01800E911EA091A501B091BA
S1132C00A601612C712CE12CF12C109709F446C01B
S1132C108D919C911197A815B905B1F56C0142E00D
S1132C20C40ED11CCA14DB0478F14C018A189B0829
S1132C30640142E0C40ED11C1296BC901297139604
S1132C40AC91B5E0CB16D10440F0B282A38391825B
S1132C508082D9016D937C9309C00E5F1F4F800F52
S1132C60911FF90191838083EB2DFA2FE114F10474
S1132C7031F0D7011396FC93EE93129741C0F09371
S1132C80A601E093A5013CC06816790608F43C014E
S1132C907D0112960D90BC91A02DB7CF8091A30118
S1132CA09091A40188169906E1F466167706C8F493
S1132CB08091000190910101009741F48DB79EB776
S1132CC04091040150910501841B950BE817F90705
S1132CD0C8F4F093A401E093A301F9017183608324
S1132CE00FC0CB010E94A2147C01009759F0A801E7
S1132CF0BE010E948916CE010E943A15C70104C084
S1132D00CE0102C080E090E0CDB7DEB7EEE00C94D7
S1132D10B216FB01DC0102C001900D9241505040FB
S1132D20D8F708952F923F924F925F926F927F92BD
S1132D308F929F92AF92BF92CF92DF92EF92FF92C7
S1132D400F931F93CF93DF93CDB7DEB7CA1BDB0B73
S1132D500FB6F894DEBF0FBECDBF09942A88398818
S1132D6048885F846E847D848C849B84AA84B9841F
S1132D70C884DF80EE80FD800C811B81AA81B9812B
S1132D80CE0FD11D0FB6F894DEBF0FBECDBFED013F
S1092D900895F894FFCF42
S1132D960000A70120000801010202020254494D65
S1132DA6455231000000000000000000004D4F5461
S1132DB64F5200000001000800400000010004001A
S1132DC6127A000200000001020303010203020159
S10F2DD6020301010302020103000000DB
S9030000FC
