S0270000537570657243617042696B652D4669726D776172652D41544D4547413332382E737265637C
S11300000C943D000C945A000C943F020C945A003A
S11300100C945A000C945A000C945A000C94AC049E
S11300200C945A000C945A000C945A000C948705B2
S11300300C945A000C945A000C9411040C945A0019
S11300400C945A000C945A000C945A000C945A00C4
S11300500C945A000C945A000C945C000C945A00B2
S11300600C9474000C945A00A400C200E7000B0125
S1130070350158019901A701A30111241FBECFEF37
S1130080D8E0DEBFCDBF11E0A0E0B1E0E0E3F4E1F1
S113009002C005900D92AE31B107D9F721E0AEE16F
S11300A0B1E001C01D92A536B207E1F70E94220219
S11300B00C94160A0C9400001F920F9200905F009B
S11300C00F9211248F93CF93DF93CDB7DEB781E0E6
S11300D080931E010000DF91CF918F910F900092C9
S11300E05F000F901F9018951F920F9200905F0071
S11300F00F9211242F933F934F935F936F937F93AA
S11301008F939F93AF93BF93EF93FF93CF93DF931B
S11301101F92CDB7DEB785E8898380910001882FCF
S113012090E0092E000CAA0BBB0B40E050E028E045
S113013030E0841B950B2817390708F40BC18C5C3D
S11301409F4FFC010C94B40989EB90E0FC01808181
S1130150882F90E0887F9927889771F481E08093B5
S1130160000100008CEB90E029812062FC012083D7
S113017081E080930101EEC086E08093000110923B
S11301800101E8C089EB90E0FC018081882F90E0B8
S1130190887F99274097A9F485E0809300010000A7
S11301A08BEB90E020911F01220F2F5FFC01208335
S11301B08CEB90E02981FC01208381E08093010194
S11301C0C9C086E08093000110920101C3C089EB8D
S11301D090E0FC018081882F90E0887F9927089720
S11301E0A1F483E08093000100008BEB90E0209168
S11301F01F01220FFC0120838CEB90E02981FC017C
S1130200208381E080930101A5C086E080930001F2
S1130210109201019FC089EB90E0FC018081882F3E
S113022090E0887F9927489759F480912101882389
S113023019F4109200010AC084E08093000106C002
S113024086E0809300011092010184C08BEB90E062
S113025020912001FC0120838CEB90E02981FC019A
S1130260208381E08093010175C089EB90E0FC015B
S11302708081882F90E0887F9927889799F486E079
S11302808093000100008BEB90E020912201FC019F
S113029020838CEB90E02981FC01208381E0809312
S11302A0010158C086E0809300011092010152C000
S11302B089EB90E0FC018081882F90E0887F99276A
S11302C08034910521F08835910551F02CC08CEBD8
S11302D090E02981FC01208381E0809301013AC0F0
S11302E080912301909124012BEB30E0F9012081CE
S11302F0FC01208381E0809301018091250190918C
S11303002601892B31F08091250190912601FC0171
S113031009958CEB90E029812061FC01208388E021
S11303208093000117C086E08093000110920101C0
S113033011C08CEB90E029812061FC01208388E0CE
S11303408093000107C081E08093010103C01092F3
S1130350010100000F90DF91CF91FF91EF91BF91C8
S1130360AF919F918F917F916F915F914F913F9149
S11303702F910F9000925F000F901F901895CF93CC
S1130380DF93CDB7DEB789EB90E0FC01108288EBF8
S113039090E0FC01108282E0809300018CEB90E0FD
S11303A025EAFC0120830000DF91CF910895CF93CB
S11303B0DF9300D01F92CDB7DEB789836A834B8366
S11303C0898180931F018A81809320018B8180938E
S11303D0220181E0809321010E94BF0181E00F90FE
S11303E00F900F90DF91CF910895CF93DF9300D0BA
S11303F000D000D0CDB7DEB789836A835C834B839A
S11304003E832D83898180931F018A8180932001FB
S11304108B819C8190932401809323018D819E8103
S11304209093260180932501109221010E94BF011F
S113043081E026960FB6F894DEBF0FBECDBFDF91E4
S1130440CF910895CF93DF931F92CDB7DEB7789401
S11304500E943C0389838981813019F481E090E012
S11304600AC085E590E025E530E0F90120812061AE
S1130470FC012083FFCF0F90DF91CF9108951F924D
S11304800F9200905F000F9211242F933F934F938C
S11304905F936F937F938F939F93AF93BF93EF93E8
S11304A0FF93CF93DF93CDB7DEB7809100018830FF
S11304B059F42BE732E047E251E061E180E20E9427
S11304C0F5018093640102C0109264010000DF9181
S11304D0CF91FF91EF91BF91AF919F918F917F91B8
S11304E06F915F914F913F912F910F9000925F0018
S11304F00F901F901895CF93DF9300D01F92CDB724
S1130500DEB780916401882309F4ADC0809127018E
S1130510869586958695877089838981873009F4C5
S1130520A4C08981882309F4A0C08981282F30E0E0
S1130530C901880F991F820F931F8A5F9E4F9B8367
S11305408A838BE290E02BE230E0F90120812C7E5B
S1130550FC0120838AE290E02AE230E0F901208164
S11305602F79FC01208384E290E024E230E0F90159
S113057020812D7FFC0120838A819B81FC01808165
S1130580882F90E08230910581F083309105B9F095
S1130590019709F06BC08BE290E02BE230E0F901A7
S11305A020812064FC01208314C08BE290E02BE2C4
S11305B030E0F90120812062FC0120830AC085E239
S11305C090E025E230E0F90120812260FC012083E3
S11305D000008A819B81FC018281882F90E0823017
S11305E09105C9F08330910549F1019709F03EC0A6
S11305F08BE290E02BE230E0F90120812E7FFC01B8
S113060020838BE290E02BE230E0F901208122612B
S1130610FC01208326C08BE290E02BE230E0F9015C
S113062020812F7EFC0120838BE290E02BE230E0DE
S1130630F90120812360FC01208313C08BE290E048
S11306402BE230E0F90120812D7FFC0120838BE235
S113065090E02BE230E0F90120812161FC0120834C
S11306600000000003C0000001C000000F900F90C4
S11306700F90DF91CF910895CF93DF93CDB7DEB77D
S113068060970FB6F894DEBF0FBECDBF84E290E052
S113069024E230E0F90120812261FC0120838AE216
S11306A090E02AE230E0F9012081236FFC012083ED
S11306B08BE290E02BE230E0F90120812C7EFC01FA
S11306C020838AE290E02AE230E0F90120812F7948
S11306D0FC01208384E290E024E230E0F9012081EF
S11306E02D7FFC0120834FEF61E080E20E94D7015F
S11306F00000809100018830E1F742E06BE080E285
S11307000E94D7010000809100018830E1F744E0A5
S11307106BE080E20E94D7010000809100018830E4
S1130720E1F742E067E080E20E94D7010000809197
S113073000018830E1F742E069E080E20E94D701DD
S11307400000809100018830E1F7CE01079620E097
S113075030E0AC0163E180E20E94F5010000809189
S113076000018830E1F748E365E080E20E94D701A8
S11307700000809100018830E1F783E08887CE0192
S113078008960E94B8078983CE0108964AE061E082
S113079070E00E9492088A838981882319F08A81F3
S11307A0882311F481E034C082E08B87CE010B965C
S11307B00E94B8078B83CE010B964AE061E070E09B
S11307C00E9492088C838B81882319F08C81882362
S11307D011F481E01DC01E86CE010E960E94B8075A
S11307E08D83CE010E964AE061E070E00E9492088B
S11307F08E838D81882319F08E81882311F481E002
S113080007C0789489E690E028E0FC01208380E02A
S113081060960FB6F894DEBF0FBECDBFDF91CF91C7
S113082008951F920F9200905F000F921124EF928F
S1130830FF920F931F932F933F934F935F938F9345
S11308409F93AF93BF93EF93FF93CF93DF931F9245
S1130850CDB7DEB78091500190915101A091520122
S1130860B0915301892B8A2B8B2B19F5809144016C
S113087090914501A0914601B0914701892B8A2BA3
S11308808B2B09F451C08091440190914501A091B2
S11308904601B09147018093500190935101A09378
S11308A05201B093530187E490E02FEFFC012083C1
S11308B03BC08091500190915101A0915201B0919F
S11308C053018F3F9105A105B10509F048F48091CA
S11308D0500190915101A0915201B091530101C076
S11308E08FEF898387E490E02981FC0120832091A4
S11308F0500130915101409152015091530189812D
S1130900882F90E0A0E0B0E079018A01E81AF90AA2
S11309100A0B1B0BD801C70180935001909351011E
S1130920A0935201B093530100000F90DF91CF9137
S1130930FF91EF91BF91AF919F918F915F914F91F3
S11309403F912F911F910F91FF90EF900F90009284
S11309505F000F901F9018951F920F9200905F00F8
S11309600F921124AF92BF92CF92DF92EF92FF9237
S11309700F931F932F933F934F935F936F937F93A3
S11309808F939F93AF93BF93EF93FF93CF93DF9393
S11309901F92CDB7DEB78091540190915501A0917B
S11309A05601B0915701892B8A2B8B2B09F056C025
S11309B0A0903801B0903901C0903A01D0903B0129
S11309C0E0903C01F0903D0100913E0110913F0107
S11309D02A2D3B2D4C2D5D2D6E2D7F2D802F912F9B
S11309E0A1E00E94C509A22EB32EC42ED52EE62E58
S11309F0F72E082F192FA0923801B0923901C09216
S1130A003A01D0923B01E0923C01F0923D01009307
S1130A103E0110933F018091480190914901A091BA
S1130A204A01B0914B01892B8A2B8B2B09F451C0BD
S1130A308091480190914901A0914A01B0914B01E4
S1130A408093540190935501A0935601B09357019C
S1130A5083EB90E02FEFFC0120833BC08091540195
S1130A6090915501A0915601B09157018F3F910586
S1130A70A105B10509F048F4809154019091550104
S1130A80A0915601B091570101C08FEF898383EB88
S1130A9090E02981FC01208320915401309155017B
S1130AA040915601509157018981882F90E0A0E030
S1130AB0B0E079018A01E81AF90A0A0B1B0BD80184
S1130AC0C7018093540190935501A0935601B093AC
S1130AD0570100000F90DF91CF91FF91EF91BF91EB
S1130AE0AF919F918F917F916F915F914F913F91C2
S1130AF02F911F910F91FF90EF90DF90CF90BF90B7
S1130B00AF900F9000925F000F901F9018951F9266
S1130B100F9200905F000F921124AF92BF92CF9278
S1130B20DF92EF92FF920F931F932F933F934F9374
S1130B305F936F937F938F939F93AF93BF93EF9341
S1130B40FF93CF93DF9300D0CDB7DEB780914C01F4
S1130B5090914D01A0914E01B0914F01892B8A2BA8
S1130B608B2B09F05BC0A0902801B0902901C090A4
S1130B702A01D0902B01E0902C01F0902D010091DE
S1130B802E0110912F012A2D3B2D4C2D5D2D6E2D04
S1130B907F2D802F912FA1E00E94C509A22EB32E94
S1130BA0C42ED52EE62EF72E082F192FA092280139
S1130BB0B0922901C0922A01D0922B01E0922C011B
S1130BC0F0922D0100932E0110932F01809140018A
S1130BD090914101A0914201B0914301892B8A2B4C
S1130BE08B2B09F458C08091400190914101A09150
S1130BF04201B091430180934C0190934D01A09325
S1130C004E01B0934F0189E890E02FEFFC0120835F
S1130C1088E890E02FEFFC0120833DC080914C01D7
S1130C2090914D01A0914E01B0914F010097A140C8
S1130C30B10548F480914C0190914D01A0914E0171
S1130C40B0914F0102C08FEF9FEF9A83898388E8A8
S1130C5090E029813A81FC013183208320914C0169
S1130C6030914D0140914E0150914F0189819A81FB
S1130C70CC01A0E0B0E079018A01E81AF90A0A0B74
S1130C801B0BD801C70180934C0190934D01A09395
S1130C904E01B0934F0100000F900F90DF91CF9160
S1130CA0FF91EF91BF91AF919F918F917F916F9140
S1130CB05F914F913F912F911F910F91FF90EF9072
S1130CC0DF90CF90BF90AF900F9000925F000F9095
S1130CD01F901895CF93DF9300D01F92CDB7DEB746
S1130CE089837B836A838981882F90E08130910591
S1130CF009F452C08230910509F499C0892B09F096
S1130D00E1C08A819B818034910529F18134910568
S1130D1030F48130910559F0089799F03AC0811563
S1130D2021E0920711F18115944049F132C081E824
S1130D3090E021E830E0F90120812160FC0120836A
S1130D402AC081E890E021E830E0F90120812260A6
S1130D50FC01208320C081E890E021E830E0F90123
S1130D6020812360FC01208316C081E890E021E803
S1130D7030E0F90120812460FC0120830CC081E86B
S1130D8090E021E830E0F90120812560FC01208316
S1130D9002C080E09AC098C08A819B81803491050A
S1130DA029F18134910530F48130910559F0089787
S1130DB099F03AC08115F1E09F0711F18115944033
S1130DC049F132C085E490E025E430E0F901208166
S1130DD02160FC0120832AC085E490E025E430E012
S1130DE0F90120812260FC01208320C085E490E089
S1130DF025E430E0F90120812360FC01208316C042
S1130E0085E490E025E430E0F90120812460FC01D0
S1130E1020830CC085E490E025E430E0F9012081D2
S1130E202560FC01208302C080E04FC04DC08A8150
S1130E309B818034910529F18134910530F481300E
S1130E40910559F0089799F03AC08115F1E09F0790
S1130E5011F18115944049F132C081EB90E021EB0E
S1130E6030E0F90120812160FC0120832AC081EB5C
S1130E7090E021EB30E0F90120812260FC01208325
S1130E8020C081EB90E021EB30E0F9012081246067
S1130E90FC01208316C081EB90E021EB30E0F901E6
S1130EA020812660FC0120830CC081EB90E021EBC3
S1130EB030E0F90120812760FC01208302C080E03A
S1130EC004C002C080E001C081E00F900F900F9039
S1130ED0DF91CF910895CF93DF93CDB7DEB78091A3
S1130EE00501882F90E081309105B9F08230910599
S1130EF029F1892B09F038C080910201813079F5FC
S1130F008FE690E0FC01108280E890E0FC01108202
S1130F1081E890E0FC01108222C0809103018130BD
S1130F2001F58EE690E0FC01108284E490E0FC017F
S1130F30108285E490E0FC01108213C080910401CA
S1130F40813089F480E790E0FC01108280EB90E02E
S1130F50FC01108281EB90E0FC01108204C00000CF
S1130F6003C0000001C000000000DF91CF9108958C
S1130F70CF93DF9300D0CDB7DEB79A83898389817D
S1130F809A81FC018081882F90E08230910579F16B
S1130F90833091052CF4009771F00197D1F063C070
S1130FA08430910509F441C0843091057CF10597A2
S1130FB009F44AC058C0109205010E946B0780E8EA
S1130FC090E020E830E0F90120812068FC012083D2
S1130FD04CC0109205010E946B0780E890E020E865
S1130FE030E0F90120812062FC0120833EC081E0D1
S1130FF0809305010E946B0784E490E024E430E0D0
S1131000F90120812062FC0120832FC081E08093BC
S113101005010E946B0784E490E024E430E0F901C8
S113102020812068FC01208320C082E08093050198
S11310300E946B0780EB90E020EB30E0F901208107
S11310402068FC01208311C082E0809305010E9486
S11310506B0780EB90E020EB30E0F9012081206207
S1131060FC01208302C080E058C080910501882FD4
S113107090E08130910519F18230910551F1892B6D
S113108091F580E890E020E830E0F90120812260C9
S1131090FC01208387E890E029813A81F9012181CC
S11310A03281232F3327FC01208386E890E02981B5
S11310B03A81F90121813281FC01208316C084E444
S11310C090E024E430E0F90120812160FC012083D8
S11310D00CC080EB90E020EB30E0F901208121602E
S11310E0FC01208302C080E018C080910501882F94
S11310F090E08E5F9E4FFC01108280910501882F45
S113110090E0880F991F880F991F885A9E4FFC0101
S1131110108211821282138281E00F900F90DF916E
S1131120CF9108950F931F93CF93DF9300D000D0F6
S113113000D0CDB7DEB79B838A837D836C834E83D7
S11311408E81853610F080E0D1C08A819B81FC01BC
S11311508081882F90E08230910509F456C0833055
S113116091052CF4009779F0019771F1AEC08430A9
S1131170910509F47AC0843091050CF45EC005979A
S113118009F48BC0A2C008E810E08E81282F30E05B
S113119040E050E08FEF9FEFDC010E94BA09DC01D0
S11311A0CB01C296A11DB11D24E630E040E050E021
S11311B0BC01CD010E949509DA01C901F8019183AE
S11311C080831092050183C00AE810E08E81282FE5
S11311D030E040E050E08FEF9FEFDC010E94BA095D
S11311E0DC01CB01C296A11DB11D24E630E040E034
S11311F050E0BC01CD010E949509DA01C901F80152
S1131200918380831092050162C028E430E08E81CE
S1131210482F50E06FEF649FC001659F900D11242B
S1131220C29644E650E0BA010E948109CB01F9015B
S1131230808381E0809305014AC027E430E08E81F9
S1131240482F50E06FEF649FC001659F900D1124FB
S1131250C29644E650E0BA010E948109CB01F9012B
S1131260808381E08093050132C023EB30E08E81DE
S1131270482F50E06FEF649FC001659F900D1124CB
S1131280C29644E650E0BA010E948109CB01F901FB
S1131290808382E0809305011AC024EB30E08E81C4
S11312A0482F50E06FEF649FC001659F900D11249B
S11312B0C29644E650E0BA010E948109CB01F901CB
S11312C0808382E08093050102C080E00FC02091FA
S11312D005018C819D81BC01822F0E946A0689834D
S11312E08981882311F480E001C081E026960FB63D
S11312F0F894DEBF0FBECDBFDF91CF911F910F9148
S1131300089597FB072E16F4009407D077FD09D0B3
S11313100E94D10907FC05D03EF4909581959F4F1A
S11313200895709561957F4F0895052E97FB1EF4DF
S113133000940E94AC0957FD07D00E94E50907FC00
S113134003D04EF40C94AC095095409530952195FA
S11313503F4F4F4F5F4F08959095809570956195DD
S11313607F4F8F4F9F4F0895EE0FFF1F0590F4910D
S1131370E02D09940E94070AA59F900DB49F900D3B
S1131380A49F800D911D112408950024A7FD0094AD
S11313902A0F301D401D501D601D701D801D901DA5
S11313A00895AA1BBB1B51E107C0AA1FBB1FA617A8
S11313B0B70710F0A61BB70B881F991F5A95A9F7FA
S11313C080959095BC01CD010895A1E21A2EAA1B27
S11313D0BB1BFD010DC0AA1FBB1FEE1FFF1FA217E1
S11313E0B307E407F50720F0A21BB30BE40BF50BDE
S11313F0661F771F881F991F1A9469F76095709567
S1131400809590959B01AC01BD01CF010895A29FE9
S1131410B001B39FC001A39F700D811D1124911DC4
S1131420B29F700D811D1124911D0895F894FFCF72
S11314300801020202020000000102030301020388
S1111440020102030101030202010300000085
S9030000FC
