:100000000C9434000C9451000C9451000C94510049
:100010000C9451000C9451000C9451000C94BA03B0
:100020000C9451000C9451000C9451000C946104F8
:100030000C9451000C9451000C943C030C9451000E
:100040000C9451000C9451000C9451000C945100EC
:100050000C9451000C9451000C9451000C945100DC
:100060000C9451000C94510011241FBECFEFD8E026
:10007000DEBFCDBF11E0A0E0B1E0EAE9FCE002C0E4
:1000800005900D92AA30B107D9F721E0AAE0B1E0BE
:1000900001C01D92AA33B207E1F70E940B050C9430
:1000A0004B060C9400002F923F924F925F926F92FA
:1000B0007F928F929F92AF92BF92CF92DF92EF92F8
:1000C000FF920F931F93CF93DF93CDB7DEB76E9759
:1000D0000FB6F894DEBF0FBECDBF4C012A013B0125
:1000E000322E5A016B01E12CF12C87014B87BC8623
:1000F000CD86DE86EF86F88A098B1A8BA12C14E256
:10010000B12E04EFC02ED12CE12CF12C00E010E038
:100110009C0140E050E060E070E080E090E00E94F0
:100120005105AB84BC84CD84DE840E94AC052639A5
:10013000310541055105610571058105910509F0FC
:1001400008F48DC0D40120E034E244EF50E00E9476
:1001500046055B016C01E12CF12C87016B8BBC8A9D
:10016000CD8ADE8AEF8AF88E098F1A8FAB84BC8421
:10017000CD84DE84E12CF12C00E010E02B893C8959
:100180004D895E8960E070E080E090E00E94AC05FF
:10019000222E832E942E5B876B8F7C8F8D8F9E8F6C
:1001A000BB24B3943B1409F474C03B1408F4CFC0CF
:1001B000B2E0CB2E3C1053C0809170008D7F8093B5
:1001C0007000222D382D492D5B856B8D7C8D8D8D9A
:1001D0009E8D22503F4F4F4F5F4F6F4F7F4F8F4F3E
:1001E0009F4FAA24AA94B12CC12CD12CE12CF12C24
:1001F00000E010E00E94AC05942F852FA901692F23
:10020000782F413024E052076105710508F000C1E4
:10021000E32DF0E0EE0FFF1FEE0FFF1FEA5EFE4F33
:1002200010821182128213828AE0E0E0F1E0DE01A6
:10023000119601900D928A95E1F7FE013196CE015B
:100240000B96819091906401E12CF12CC416D50697
:10025000E606F70608F010C18E179F0791F780E0B9
:100260006E960FB6F894DEBF0FBECDBFDF91CF9173
:100270001F910F91FF90EF90DF90CF90BF90AF90C4
:100280009F908F907F906F905F904F903F902F90B6
:10029000089580916E008D7F80936E00222D382D01
:1002A000492D5B856B8D7C8D8D8D9E8D22503F4FB2
:1002B0004F4F5F4F6F4F7F4F8F4F9F4FAA24AA948E
:1002C000B12CC12CD12CE12CF12C00E010E00E94CB
:1002D000AC05942F852FA901692F782F413014E0A8
:1002E00051076105710508F493CF222D382D492D52
:1002F0005B856B8D7C8D8D8D9E8D0AE00E940B063B
:10030000C901DA0180931A0190931B01A0931C018B
:10031000B0931D0180911A0190911B01A0911C01C5
:10032000B0911D0180930E0190930F01A0931001D5
:10033000B093110182E084BD85E085BD80916E009F
:10034000826080936E008FEF87BD81E089CF8091BE
:100350006F008D7F80936F00222D382D492D5B8596
:100360006B8D7C8D8D8D9E8D225031094F4F5F4F4F
:100370006F4F7F4F8F4F9F4FAA24AA94BB24BA94EC
:10038000C12CD12CE12CF12C00E010E00E94AC0536
:10039000942F852FA901692F782F413004E0500751
:1003A0006105710508F434CF222D382D492D5B8568
:1003B0006B8D7C8D8D8D9E8D0AE00E940B06C90190
:1003C000DA018093160190931701A0931801B0935E
:1003D00019018091160190911701A0911801B09117
:1003E000190180930A0190930B01A0930C01B09323
:1003F0000D018DE0809381008FEF809389008093C1
:10040000880080916F00826080936F0081E028CF28
:10041000222D382D492D5B856B8D7C8D8D8D9E8D8C
:100420000AE00E940B06C901DA0180931E01909335
:100430001F01A0932001B093210180911E01909192
:100440001F01A0912001B09121018093120190938E
:100450001301A0931401B09315013092B00087E00E
:100460008093B100809170008260809370008FEF64
:100470008093B30081E0F4CEA3019201C701B601DD
:100480000E9436052B013C0161157105810591051E
:1004900009F4E5CEDC01CB01B695A7959795879534
:1004A0005C016D019C01A60160E070E080E090E0DD
:1004B000AB88BC88CD88DE88E12CF12C00E010E010
:1004C0000E94270663015201E12CF12C87014B8623
:1004D000BC86CD86DE86EF86F88A098B1A8BE12CE6
:1004E000F12C00E010E00E94AC05C901DA01009790
:1004F000A105B10509F4B3CE3FEF330D323078F1E9
:10050000311034C0009701E0A007B10508F0A7CE74
:1005100040E48416910409F4A1C008F073C061E0BE
:100520008616910409F48AC078E08716910419F4BC
:1005300032E0309381003091810038603093810047
:10054000892F9A2FAB2FBB278093890080916F0052
:10055000826080936F002093880081E081CE8F3F7E
:100560009105A105B10511F008F079CE11E0311621
:1005700019F1311668F232E033127CCF80E488162C
:10058000910409F45FC008F04AC0E1E08E169104BE
:1005900009F45CC008E08016910411F43092B100B7
:1005A00082E08093B0008091700082608093700040
:1005B0002093B30081E054CE10E48116910409F435
:1005C00054C0A8F441E084169104B1F158E08516B6
:1005D000910411F482E085BD84B5826084BD809170
:1005E0006E00826080936E0027BD81E039CE811459
:1005F00061E09606B9F1811474E0970669F785E029
:1006000085BDEACF8114E1E09E0621F1811404E06A
:10061000900609F090CF35E0309381008CCF8114A3
:1006200011E0910629F1811434E0930609F0B8CF66
:1006300087E08093B100B4CF35BCCECF31E03093AA
:10064000810079CF84E08093B100AACF81E08093CC
:10065000B100A6CF34E0309381006DCF33E030930A
:10066000810069CF84E085BDB7CF83E085BDB4CF7D
:1006700086E08093B10094CF1F920F920FB60F9235
:1006800011244F935F936F937F938F939F93AF93B7
:10069000BF9380910E0190910F01A0911001B09134
:1006A0001101892B8A2B8B2B79F59BB180E489274B
:1006B0008BB980911A0190911B01A0911C01B091FE
:1006C0001D01892B8A2B8B2B91F080911A0190911F
:1006D0001B01A0911C01B0911D0180930E0190930C
:1006E0000F01A0931001B09311018FEF87BDBF914F
:1006F000AF919F918F917F916F915F914F910F90EB
:100700000FBE0F901F90189580910E0190910F01D0
:10071000A0911001B09111018F3F9105A105B10584
:10072000E1F0D8F04FEF50E060E070E08FEF87BD70
:1007300080910E0190910F01A0911001B0911101D3
:10074000841B950BA60BB70B80930E0190930F01A2
:10075000A0931001B0931101CACF40910E015091A6
:100760000F016091100170911101842F55276627A8
:100770007727DDCF1F920F920FB60F9211242F9380
:100780003F934F935F936F937F938F939F93AF9319
:10079000BF938091120190911301A0911401B09127
:1007A0001501892B8A2B8B2B09F054C08BB18058F3
:1007B0008BB9209132013091330140913401509135
:1007C0003501609136017091370180913801909127
:1007D0003901A1E00E9430062093320130933301A9
:1007E0004093340150933501609336017093370183
:1007F000809338019093390180911E0190911F01DF
:10080000A0912001B0912101892B8A2B8B2B99F08B
:1008100080911E0190911F01A0912001B0912101B2
:100820008093120190931301A0931401B0931501CA
:100830008FEF8093B300BF91AF919F918F917F9184
:100840006F915F914F913F912F910F900FBE0F903D
:100850001F9018958091120190911301A09114019D
:10086000B09115018F3F9105A105B105E9F0E0F0C8
:100870004FEF50E060E070E08FEF8093B300809125
:10088000120190911301A0911401B0911501841BE4
:10089000950BA60BB70B8093120190931301A093B5
:1008A0001401B0931501C7CF40911201509113016B
:1008B0006091140170911501842F552766277727C1
:1008C000DCCF1F920F920FB60F9211242F933F93FC
:1008D0004F935F936F937F938F939F93AF93BF9348
:1008E00080910A0190910B01A0910C01B0910D0132
:1008F000892B8A2B8B2B09F057C095B181E0892772
:1009000085B9209122013091230140912401509119
:100910002501609126017091270180912801909115
:100920002901A1E00E943006209322013093230187
:100930004093240150932501609326017093270171
:1009400080932801909329018091160190911701BD
:10095000A0911801B0911901892B8A2B8B2BA9F03A
:100960008091160190911701A0911801B091190181
:1009700080930A0190930B01A0930C01B0930D0199
:100980008FEF8093890080938800BF91AF919F91F2
:100990008F917F916F915F914F913F912F910F9028
:1009A0000FBE0F901F90189580910A0190910B0136
:1009B000A0910C01B0910D010097A140B105F8F094
:1009C0004FEF5FEF60E070E08FEF9FEF9093890053
:1009D0008093880080910A0190910B01A0910C01F5
:1009E000B0910D01841B950BA60BB70B80930A01E8
:1009F00090930B01A0930C01B0930D01C6CF4091D1
:100A00000A0150910B0160910C0170910D01CA0116
:100A100066277727DBCF7894209A219A579A569A9F
:100A200021E048EE53E060E070E084E690E00E9450
:100A30005300D82F22E040E452E46FE070E08AE0F7
:100A400090E00E945300C82F20E041E050E060E0B9
:100A500070E083E090E00E945300DD2321F0CC237E
:100A600011F0811102C082E085B9FFCFDB018F93C5
:100A70009F930E944605BF91AF91A29F800D911D4B
:100A8000A39F900DB29F900D112408950E943C06E3
:100A9000A59F900DB49F900DA49F800D911D1124D2
:100AA0000895DF93CF931F930F939A9DF02D219F6D
:100AB000F00D8B9DF00D8A9DE02DF10D039FF00D43
:100AC000029FE00DF11D4E9DE00DF11D5E9DF00DAC
:100AD0004F9DF00D7F936F93BF92AF925F934F93B3
:100AE000D5010E943C068B01AC01D7010E943C0657
:100AF000EB01E80FF91FD6010E94A1052F913F914C
:100B0000D6010E943C06C60FD71FE81FF91FAF9100
:100B1000BF910E94A1052F913F910E943C06C60FF4
:100B2000D71FE81FF91FD6010E943C06E60FF71FEA
:100B30009801BE01CF0111240F911F91CF91DF9138
:100B400008950E943C06460F571FC81FD91F08F47E
:100B500031960895689401C0E8948F929F92CF9344
:100B6000DF930E94B805DF91CF919F908F900895F9
:100B700088249924F401E401B0E49F93AA279A15EC
:100B80008B049C04ED05FE05CF05D007A10798F462
:100B9000AD2FDC2FCF2FFE2FE92D982C892E982FEB
:100BA000872F762F652F542F432F322F2227B850AF
:100BB00031F7BF9127C01B2EBF91BB27220F331FD8
:100BC000441F551F661F771F881F991F881C991C7B
:100BD000EE1FFF1FCC1FDD1FAA1FBB1F8A149B0423
:100BE000EC05FD05CE05DF05A007B10748F08A1822
:100BF0009B08EC09FD09CE09DF09A00BB10B2160B0
:100C00001A94E1F62EF49401AF01BE01CD01000C5F
:100C1000089597FB10F8169400080F93083098F089
:100C20000850232F342F452F562F672F782F892FC9
:100C3000902DF4CF0594979587957795679557955F
:100C40004795379527950A95AAF70F9108952A0D8C
:100C50003B1D4C1D5D1D6E1D7F1D801F911F089546
:100C60000024A7FD00942A0F301D401D501D601D5B
:100C7000701D801D901D0895A29FB001B39FC001FB
:100C8000A39F700D811D1124911DB29F700D811DB8
:0A0C90001124911D0895F894FFCF80
:0A0C9A000100080040000001000402
:00000001FF
